:020000040800F2
:10000000D89B00204501000851150008550F000835
:100010004D150008C90700089723000800000000DC
:100020000000000000000000000000005117000860
:10003000DD0B000800000000D91500086518000855
:100040005F0100085F0100085F0100085F01000810
:100050005F0100085F0100085F0100085F01000800
:100060005F0100085F0100085F0100085F010008F0
:100070005F0100085F0100085F0100085F010008E0
:100080005F0100085F0100085F0100085F010008D0
:100090005F0100085F0100085F010008E10B000834
:1000A0005F0100085F0100085F0100085F010008B0
:1000B000C918000881190008411A00085F010008EA
:1000C0005F0100085F0100085F0100085F01000890
:1000D0005F010008411D0008951E0008E11F00088F
:1000E0005F0100085F0100085F0100085F01000870
:1000F0005F0100085F0100085F0100085F01000860
:100100005F0100085F010008011B00085F01000893
:10011000651C00085F0100085F0100085F0100081E
:100120005F0100085F0100085F0100085F0100082F
:10013000DFF80CD000F036FB00480047852E0008A1
:10014000D89B00200648804706480047FEE7FEE7A8
:10015000FEE7FEE7FEE7FEE7FEE7FEE7FEE7FEE777
:10016000691800083101000830B505462A460B46DB
:1001700012F8010B13F8014B08B1A042F8D01CB1E2
:10018000002802D06D1CF1E7284630BD421C10F853
:10019000011B0029FBD1801A70472DE9FE4F8046D4
:1001A00081EA0300C00F0C46009021F0004123F0CB
:1001B0000045B8EB0200A94105D2404621469046D1
:1001C0001C460B46024623F00040104347D0270D43
:1001D000C7F30A00C3F30A510290401A0190402865
:1001E0006BDAC3F3130040F4801B0098924620B1F1
:1001F0000023D2EB030A63EB0B0B01985946C0F1C5
:100200004002504600F0D8F906460D465046594681
:10021000019A00F0F0F910EB08006141002487EA30
:10022000115284EAE7731A4340D0009A62B3019AEC
:10023000012A4FEA075215DC001B61EB02014FF067
:10024000004202EA0752CDE90042001C41F580114C
:1002500032462B4600F027FA03B0BDE8F08F404647
:100260002146F9E7001B61EB0201001C41F58013F8
:1002700000185B412018A2F5001747EB030140EA84
:10028000D570B6196D4111E06D084FEA360645EAA2
:10029000C0754FEA0752001B61EB0201001C41F5DB
:1002A000801149084FEA30000019514132462B466F
:1002B00003B0BDE8F04F00F0E7B90098012240001C
:1002C0000023D0EB020263EBE073009821464FEA73
:1002D000E074B8EB000061EB0401E9E783F0004350
:1002E0005BE781F0004158E72DE9FE4F81EA030406
:1002F00004F0004421F0004100944FF0000B23F083
:10030000004350EA01045ED052EA03045BD0C3F319
:100310000A54C1F30A552C44A4F2F3340194A0FB0F
:100320000254C1F3130141F48011C3F3130343F4E6
:10033000801301FB024400FB034E840A970A44EA3F
:10034000815447EA8357A4FB076802958D0A05FB91
:1003500007854FEA932C04FB0C542705029D4FEAB6
:10036000065847EA1637B5EB08056EEB070C870E03
:10037000920E47EA811742EA8312A7FB0201B6EB0D
:100380000B0164EB00042B0D43EA0C335E1844EBC5
:100390001C50DA465146E7FB0201C5F313044FEA4D
:1003A0000B3343EA14534FEA0432019C43EA060339
:1003B000A4F10C040294009CCDE900B400F073F9A0
:1003C00003B0BDE8F08F00200146F9E72DE9F04DBC
:1003D00081EA030404F0004B21F0004514464FF07D
:1003E000000A23F0004150EA050220D054EA01023D
:1003F0001DD0C5F30A570246C5F31303C1F313001A
:10040000C1F30A5640F4801543F48013A7EB0608A5
:10041000101BD64608F2FD3873EB050002D308F135
:10042000010801E092185B41B8F1000F03DA0020E7
:100430000146BDE8F08D00204FF480110646844649
:100440000EE0171B73EB050705D3121B63EB0503C7
:1004500006434CEA010C49084FEA300092185B4110
:1004600050EA0107EDD152EA030012D082EA0400FB
:1004700083EA0501084305D0101BAB4106D20122D7
:10048000002306E000224FF0004302E06FF001027B
:1004900053101AEB06004CEB085110EB0A0041EB2D
:1004A0000B01BDE8F04D00F0EFB80EB5C10F80EACA
:1004B000E0700844CA07002140F233438DE80E0083
:1004C0000A460B4600F0EFF803B000BD00F0004212
:1004D00030F000400AD0C10D01F56071C0F3160084
:1004E00042EA0151C208400711437047002001460B
:1004F000704701F0004330B421F0004150EA01029E
:1005000006D00A0DA2F56072C1F31301002A02DCC5
:1005100030BC00207047440F44EAC104C100E01819
:1005200030BC00EBC25000F078B830B50B46014645
:1005300000202022012409E021FA02F59D4205D382
:1005400003FA02F5491B04FA02F52844151EA2F12C
:100550000102F1DC30BD2DE9F05F05460020924636
:100560009B4688460646814640241BE02846414675
:100570004746224600F02FF853465A46C01A91418A
:1005800010D311461846224600F016F82D1A67EBD4
:1005900001084F4622460120002100F00DF817EB1C
:1005A00000094E41201EA4F10104DFDC484631461B
:1005B0002A464346BDE8F09F202A04DB203A00FA91
:1005C00002F1002070479140C2F1200320FA03F3AA
:1005D000194390407047202A04DB203A21FA02F0A8
:1005E0000021704721FA02F3D040C2F1200291406D
:1005F000084319467047202A06DBCB17203A41FAF8
:1006000002F043EAE07306E041FA02F3D040C2F19F
:10061000200291400843194670470029A8BF70473F
:10062000401C490008BF20F00100704710B4B0FA28
:1006300080FC00FA0CF050EA010404BF10BC7047C3
:1006400049B1CCF1200421FA04F411FA0CF118BFDD
:10065000012121430843A3EB0C01CB1D4FEA0061AC
:100660004FEA102042BF002010BC704700EBC3507F
:1006700010440029A4BF10BC7047401C490008BFAB
:1006800020F0010010BC704710B5141E73F1000477
:1006900008DA401C41F1000192185B411A4301D174
:1006A00020F0010010BD2DE9F04D92469B4611B19E
:1006B000B1FA81F202E0B0FA80F220329046FFF700
:1006C0007BFF04460F4640EA0A0041EA0B0153460D
:1006D0005A46084313D0114653EA010019D0C8F115
:1006E00040025046FFF777FF05460E4650465946F2
:1006F0004246FFF761FF084305D0012004E0204691
:100700003946BDE8F08D0020054346EAE0762C43EB
:1007100037430A986305E40AA0EB08000022FD0AAB
:1007200044EA47540A3002D500200146E9E70105B2
:1007300010196941DDE9084500196941BDE8F04D2E
:10074000A2E7C1F30A52C1F3130140F2FF3341F4AF
:1007500080119A4202DA00200146704740F233438A
:100760009A42A2F2334202DC5242FFF734BFFFF753
:1007700023BF000030B5041E71F1000404DB4FF00C
:100780000044404264EB0101141E73F1000405DBD8
:100790001C464FF00043524263EB0403994208BFEA
:1007A000904230BD064C074D06E0E06840F0010382
:1007B00094E8070098471034AC42F6D3FFF7BCFC2E
:1007C0008C390008AC39000800BFFEE721B102688F
:1007D00042F00102026004E002684FF6FE731A4024
:1007E0000260704701684FF6FE72114001600021FF
:1007F000016041608160C1604B49884208D14A492B
:100800000839496841F00F01474A083A51608AE0C7
:1008100045491431884208D143490839496841F0B3
:10082000F001414A083A51607DE03F492831884251
:1008300008D13D490839496841F470613A4A083A9B
:10084000516070E038493C31884208D13649083956
:10085000496841F47041344A083A516063E03249D2
:100860005031884208D130490839496841F4702133
:100870002D4A083A516056E02B496431884208D12C
:1008800029490839496841F47001274A083A5160FA
:1008900049E025497831884208D123490839496817
:1008A00041F07061204A083A51603CE01F4988429B
:1008B00006D1011F096841F00F01021F116032E0EB
:1008C0001A491431884208D11849091F096841F0B2
:1008D000F001164A121F116025E0144928318842A0
:1008E00008D11249091F096841F470610F4A121FAB
:1008F000116018E00D493C31884208D10B49091FAD
:10090000096841F47041094A121F11600BE0074960
:100910005031884207D10549091F096841F4702107
:10092000024A121F1160704708000240080402408A
:100930000146486880B2704710B50022026847F649
:10094000F0739A430C6A8B6823430C6923434C6908
:1009500023438C692343CC6923434C6A23438C6A29
:1009600023431A430260CB6843600B6883604B6883
:10097000C36010BD4160704708B50121202000F020
:100980005DFE4020ADF8000010208DF8030003202C
:100990008DF802006946024800F044FA08BD0000E4
:1009A000001401402DE9F05F00F0E0F8442000F071
:1009B000E7F800F0DBF8BE2000F0E2F800F0A0F865
:1009C000834600F09DF882464FEA0A2004B244EACA
:1009D0000B04002C0DDAE043401CFFF766FD0746D0
:1009E00000220B4BFFF780FC0546FFF782FD814696
:1009F0000BE02046FFF759FD07460022044BFFF7A6
:100A000073FC0546FFF775FD81464846BDE8F09F3B
:100A10000000B03F10B5FFF7AFFF4021034800F0E2
:100A200097FA00F08DF800F023F810BD0014014093
:100A300008B54020ADF8000048208DF80300694655
:100A4000014800F0EFF908BD0014014008B540204E
:100A5000ADF8000010208DF8030003208DF802008F
:100A60006946024800F0DEF908BD000000140140AC
:100A700010B50024FFF7DCFF04E0601CC4B20120C5
:100A800002F0DAF940210F4800F057FA08B1642C5F
:100A9000F3DB642C01DB012010BD002404E0601CAA
:100AA000C4B2012002F0C8F94021064800F045FA1E
:100AB00008B9F02CF3DBF02C01DB0120ECE700207F
:100AC000EAE700000014014010B5FFF7BFFF402126
:100AD0000A4800F03BFA0A2002F0AEF9FFF7A8FF3F
:100AE0004021064800F029FA012801D1012400E044
:100AF00000242D2002F0A0F9204610BD0014014072
:100B000070B50026002408E0FFF7DEFF054605FA71
:100B100004F03043C6B2601CC4B2082CF4DB30468B
:100B200070BD70B50546332000F02AF8002404E0BB
:100B3000FFF7E6FF2855601CC4B2082CF8DB70BD37
:100B400010B5FFF783FF4021074800F0FFF940F29E
:100B5000EE2002F071F94021034800F0F9F90F206E
:100B600002F06AF910BD00000014014010B5FFF753
:100B7000E7FFFFF77DFFCC2000F002F810BD00007A
:100B800070B50446FFF762FF002522E004F001067D
:100B9000641076B14021104800F0D8F9082002F026
:100BA0004BF940210C4800F0D3F93A2002F044F907
:100BB0000DE04021084800F0C9F9462002F03CF958
:100BC0004021054800F0C4F9022002F035F9681C04
:100BD000C5B2082DDADB70BD00140140704700007B
:100BE00010B54FF4007000F011F828B1012003494E
:100BF0000870400200F004F810BD0000580000200A
:100C000001490860704700001404014001460020BB
:100C10000022074B1B6803EA0102054B14331B68D3
:100C20000B4013B10AB1012000E000207047000022
:100C300000040140002123498279002A3AD00A4663
:100C4000126803689A430B461A600A1D126803680B
:100C50009A430B1D1A60027911440A6803681A430B
:100C60000A60184A0832126803689A43154B083321
:100C70001A601A1D126803689A43124B0C331A60EB
:100C80004279102A0ED11A1F126803681A430D4BBD
:100C900008331A601A1D126803681A43094B0C3393
:100CA0001A600DE00749427911440A6803681A4343
:100CB0000A6005E0027911440A6803689A430A60F1
:100CC000704700000004014051B18200A2F1C0420F
:100CD000126842F001038200A2F1C042136009E0F1
:100CE0008200A2F1C0421268034B1A408300A3F1B4
:100CF000C0431A6070470000FEFF0F00D0E90112E8
:100D00001143C26811430269114342691143826968
:100D10001143C2691143026A1143426A1143826A54
:100D20001143C26A1143026B114302689200A2F19F
:100D3000C0421160816808290BD101688900A1F1C6
:100D4000C041096841F0400201688900A1F1C04139
:100D50000A60416B0968426B526841EA0211426BBA
:100D6000926841EA0221426B928941EA0241426B58
:100D7000128A41EA0251426B127D41EA0261426BE2
:100D8000926911430268521C9200A2F1C0421160A4
:100D9000C16AB1F5804F1BD1816B0968826B5268C3
:100DA00041EA0211826B926841EA0221826B128A47
:100DB00041EA0251826B127D41EA0261826B9269C3
:100DC000114302689200A2F1C042C2F8041107E088
:100DD0006FF0704201688900A1F1C041C1F804219F
:100DE0007047000030B500228B071C0F0F2303FA59
:100DF00004F20B4B8C1053F824309343084C8D10A5
:100E000044F8253023468C1053F824308C07240FE7
:100E100000FA04F42343024C8D1044F8253030BD11
:100E2000080001402DE9F04102460025002600207F
:100E300000230024002791F803C00CF00F0591F85F
:100E400003C00CF0100CBCF1000F03D091F802C0ED
:100E50004CEA050591F800C0BCF1000F31D01468D0
:100E600000202BE04FF0010C0CFA00F3B1F800C0A9
:100E70000CEA03069E4220D183004FF00F0C0CFABF
:100E800003F7BC4305FA03FC4CEA040491F803C0E1
:100E9000BCF1280F06D14FF0010C0CFA00FCC2F88F
:100EA00014C00AE091F803C0BCF1480F05D14FF01F
:100EB000010C0CFA00FCC2F810C0401C0828D1D369
:100EC0001460B1F800C0BCF1FF0F34DD546800209D
:100ED0002EE000F1080C4FF0010808FA0CF3B1F80D
:100EE00000C00CEA03069E4221D183004FF00F0C94
:100EF0000CFA03F7BC4305FA03FC4CEA040491F82E
:100F000003C0BCF1280F05D100F1080C08FA0CF859
:100F1000C2F8148091F803C0BCF1480F07D100F16A
:100F2000080C4FF0010808FA0CF8C2F81080401CB9
:100F30000828CED35460BDE8F081024600209368B3
:100F40000B400BB1012000E0002070474161704769
:100F50000161704700BFFEE710B5044624B140218F
:100F60000448FFF7F3FF03E040210248FFF7F0FFDA
:100F700010BD0000002001402DE9F04106460F465B
:100F800014461D46DDF818802B4622463946304669
:100F900000F033F904FB05F0414600F09DF8BDE890
:100FA000F08101B502E00098401E009000980028F2
:100FB000F9D108BD2DE9F05F81468A4615461E46E7
:100FC000A5F1200000F0FF0B1023082251464846EF
:100FD00000F013F92C2000F06FFA00241AE00F48FB
:100FE00000EB0B10075D4FF000080EE007F001006A
:100FF00018B10A9800F064FA02E0304600F060FA96
:101000007F1008F1010000F0FF08B8F1080FEDDBD8
:10101000601CC4B2102CE2DBBDE8F09F9C330008DA
:101020002DE9F84305460E4614461F46DDF820809C
:101030001AE028460830F02803DD002506F11000EC
:1010400086B230461030B0F5A07F01DD00250026C5
:10105000CDF8008022783B4631462846FFF7AAFFAC
:10106000641C05F1080085B220780028E1D1BDE8B4
:10107000F88300B597B00121080200F0AFFA022012
:10108000019000200290052003900020049005901C
:1010900006904FF08050079006200890002009909D
:1010A00008200A9010200B9000200C900E900F90BA
:1010B00010904FF4805011900020129013901490D3
:1010C00001A81590169008A8FFF718FE0121062028
:1010D000FFF7FAFD17B000BD70B504460D460026B7
:1010E0002C2000F0E9F900BF03E0284600F0E8F901
:1010F000761CA642F9D370BD08B50121084600F060
:101100009DFA0121602000F099FA03208DF8020079
:1011100018208DF803004CF20370ADF8000069460A
:101120002C48FFF77FFE4FF68070ADF8000069464F
:101130002948FFF777FE03208DF8020018208DF86C
:1011400003001020ADF8000069462248FFF76AFE50
:101150002020ADF8000069461E48FFF763FE01211C
:10116000080200F06BFA4FF48050ADF800006946B9
:101170001A48FFF757FE0121402000F05FFA0420D3
:10118000ADF8000069461448FFF74CFE10208DF8BA
:10119000030003208DF802000121080200F04EFA3E
:1011A0004FF40060ADF8000069460C48FFF73AFEC6
:1011B00010208DF8030003208DF8020001210802A1
:1011C00000F03CFA4020ADF8000069460348FFF704
:1011D00029FE08BD00140140001801400020014014
:1011E00010B5FFF789FFFFF744FF0120FFF7B4FEBA
:1011F00000F04CF900F032F810BD2DE9F041044642
:101200000D4616461F462A2000F056F9201200F01F
:1012100057F9E0B200F054F9A119491EC1F30F20AB
:1012200000F04EF9A119491EC8B200F049F92B206F
:1012300000F042F9281200F043F9E8B200F040F95A
:10124000E919491EC1F30F2000F03AF9E919491EC6
:10125000C8B200F035F9BDE8F081000010B5CF202C
:1012600000F02AF9002000F02BF9812000F028F985
:10127000302000F025F9ED2000F01EF9642000F088
:101280001FF9032000F01CF9122000F019F9812049
:1012900000F016F9E82000F00FF9852000F010F9B1
:1012A000102000F00DF9782000F00AF9CB2000F0B2
:1012B00003F9392000F004F92C2000F001F9002096
:1012C00000F0FEF8342000F0FBF8022000F0F8F8FF
:1012D000F72000F0F1F8202000F0F2F8EA2000F00A
:1012E000EBF8002000F0ECF8002000F0E9F8B12065
:1012F00000F0E2F8002000F0E3F81B2000F0E0F836
:10130000B62000F0D9F80A2000F0DAF8A22000F0A8
:10131000D7F8C02000F0D0F8352000F0D1F8C12077
:1013200000F0CAF8112000F0CBF8C52000F0C4F896
:10133000452000F0C5F8452000F0C2F8C72000F0B5
:10134000BBF8A22000F0BCF8F22000F0B5F80020B5
:1013500000F0B6F8262000F0AFF8012000F0B0F859
:10136000E02000F0A9F80F2000F0AAF8262000F0F5
:10137000A7F8242000F0A4F80B2000F0A1F80E201C
:1013800000F09EF8092000F09BF8542000F098F837
:10139000A82000F095F8462000F092F80C2000F00C
:1013A0008FF8172000F08CF8092000F089F80F2042
:1013B00000F086F8072000F083F8002000F080F8A5
:1013C000E12000F079F8002000F07AF8192000F010
:1013D00077F81B2000F074F8042000F071F810205A
:1013E00000F06EF8072000F06BF82A2000F068F893
:1013F000472000F065F8392000F062F8032000F083
:101400005FF8062000F05CF8062000F059F8302064
:1014100000F056F8382000F053F80F2000F050F894
:10142000362000F049F8C82000F04AF82A2000F0E1
:1014300043F8002000F044F8002000F041F80020BC
:1014400000F03EF8EF2000F03BF82B2000F034F8DD
:10145000002000F035F8002000F032F8012000F004
:101460002FF83F2000F02CF83A2000F025F8552006
:1014700000F026F8112000F01FF80348FFF791FD57
:10148000292000F019F810BDFCBF020010B54FF480
:1014900000610748FFF75AFD0648FFF782FD4FF449
:1014A00000610348FFF754FD0248FFF77AFD10BDC5
:1014B00000200140FCBF02004FF0D8410880704777
:1014C0004FF0DA410880704710B50E4C00F0CCF9AF
:1014D00001F06AFC642001F089FC00F01DF84FF473
:1014E000165000F065FC4FF4165000F00BFD4FF461
:1014F000165000F0ADFD01F0DBFD00200249088030
:1015000010BD0000E52400206600002010B5FFF7A4
:1015100067FE00F0BFFF10BD08B50121082000F0F4
:101520008DF82320ADF8000010208DF80300032073
:101530008DF8020069460448FFF774FC2321024835
:10154000FFF706FD08BD0000000C014000BFFEE7EC
:101550007047000070B5002100230F22C47804B347
:10156000154C246804F4E064C4F5E064210AC1F178
:101570000403CA40447804FA03F1847814402143F8
:1015800009010E4C0678A155047804F01F050124CA
:10159000AC4005786D11AD0005F1E025C5F80041BE
:1015A00009E0047804F01F050124AC40044D0678DE
:1015B000761145F8264070BD0CED00E000E400E037
:1015C00080E100E002490143024A116070470000D7
:1015D0000000FA050CED00E07047000029B1064A52
:1015E00052690243044B5A6104E0034A5269824340
:1015F000014B5A61704700000010024029B1064AB1
:10160000D2690243044BDA6104E0034AD26982439F
:10161000014BDA61704700000010024029B1064A10
:1016200012690243044B1A6104E0034A12698243BF
:10163000014B1A61704700000010024029B1064AB0
:1016400092690243044B9A6104E0034A926982431F
:10165000014B9A61704700000010024029B1064A10
:10166000D2680243044BDA6004E0034AD268824342
:10167000014BDA60704700000010024030B50021D5
:101680000022002400232D4D6D6805F00C0121B1CE
:10169000042905D0082923D105E0294D056022E061
:1016A000274D05601FE0254D6D6805F47012234D30
:1016B0006D6805F48034022505EB92421CB9214D7A
:1016C000554305600BE01D4D6D6805F400351DB1F7
:1016D0001C4D5543056002E0194D5543056002E07D
:1016E000174D056000BF00BF144D6D6805F0F00197
:1016F0000909154D6B5C0568DD4045600F4D6D684F
:1017000005F4E061090A104D6B5C4568DD408560B9
:101710000A4D6D6805F46051C90A0B4D6B5C456854
:10172000DD40C560054D6D6805F44041890B074DEE
:101730006B5CC568B5FBF3F5056130BD0010024078
:1017400000127A0000093D0014000020240000204F
:10175000704710B500F002F810BD00000CB5002075
:10176000019000903348006840F4803031490860AF
:1017700000BF3048006800F4003000900198401C21
:101780000190009818B90198B0F5A06FF1D12948DF
:10179000006800F4003010B10120009001E000204A
:1017A00000900098012843D12348006840F01000C1
:1017B000214908600846006820F0030008600846D8
:1017C000006840F0020008601A4840681949486003
:1017D0000846406848600846406840F480604860B9
:1017E0000846406820F47C1048600846406840F491
:1017F000E81048600846006840F08070086000BF4C
:101800000C48006800F000700028F9D009484068D2
:1018100020F00300074948600846406840F0020095
:10182000486000BF0348406800F00C000828F9D168
:101830000CBD00000010024000200240042808D126
:101840004FF0E021096941F004014FF0E0221161FD
:1018500007E04FF0E021096921F004014FF0E02298
:10186000116170477047000010B51348006840F0E0
:1018700001001149086008464068104908400E49B7
:101880004860084600680E4908400B490860084651
:10189000006820F4802008600846406820F4FE00BC
:1018A00048604FF41F008860FFF753FF4FF000605F
:1018B0000449086010BD0000001002400000FFF85D
:1018C000FFFFF6FE08ED00E010B50121880700F0EB
:1018D0005AF990B10948008840F40040074908804F
:1018E00000200988C1F30E01054A505401218807E0
:1018F00000F03AF9002000F02FF810BD6800002039
:10190000D88700207FB505460C4601210846FFF721
:1019100075FEADF80450ADF800400020ADF80600AB
:10192000ADF8020069464FF0804000F049F901220D
:101930001146900700F038F91C208DF80C000120AA
:101940008DF80D0002208DF80E0001208DF80F009B
:1019500003A8FFF7FFFD7FBD10B504464CB1002181
:101960004FF0804000F029F90121880700F0FFF8CE
:1019700004E000214FF0804000F0F9F810BD0000B5
:1019800010B501210B4800F0FEF890B10A4800881C
:1019900040F400400849088000200988C1F30E0186
:1019A000064A50540121034800F0DEF8002000F000
:1019B00033F810BD0004004066000020D867002006
:1019C0007FB505460C4601210220FFF717FEADF852
:1019D0000450ADF800400020ADF80600ADF802005C
:1019E00069460C4800F0ECF801221146094800F065
:1019F000DBF81D208DF80C0001208DF80D00022071
:101A00008DF80E0001208DF80F0003A8FFF7A2FD4E
:101A10007FBD00000004004010B5044644B1002121
:101A2000064800F0CAF80121044800F0A0F803E0DD
:101A30000021024800F09BF810BD000000040040A7
:101A400010B501210B4800F09EF890B10A480088BB
:101A500040F400400849088000200988C1F30E01C5
:101A6000064A50540121034800F07EF8002000F09F
:101A700033F810BD0008004064000020D853002057
:101A80007FB505460C4601210420FFF7B7FDADF8F0
:101A90000450ADF800400020ADF80600ADF802009B
:101AA00069460C4800F08CF801221146094800F004
:101AB0007BF81E208DF80C0001208DF80D0002200F
:101AC0008DF80E0001208DF80F0003A8FFF742FDEE
:101AD0007FBD00000008004010B5044644B100215D
:101AE000064800F06AF80121044800F040F803E0DD
:101AF0000021024800F03BF810BD00000008004043
:101B000010B501210B4800F03EF890B10A4800885A
:101B100040F400400849088000200988C1F30E0104
:101B2000064A50540121034800F01EF8002000F03E
:101B300007F810BD000C00405C000020D84D0020CC
:101B400010B5044644B10021064800F036F80121E2
:101B5000044800F00CF803E00021024800F007F808
:101B600010BD0000000C0040CA430282704721B142
:101B7000028842F00102028004E002884FF6FE7300
:101B80001A400280704730B502460020002300242E
:101B9000158A05EA0103958905EA010413B10CB120
:101BA000012000E0002030BD1AB183890B438381FE
:101BB00002E083898B4383817047818470470000F2
:101BC000002202881D4B98420ED01D4B98420BD02C
:101BD000B0F1804F08D01B4B984205D01A4B984269
:101BE00002D01A4B984204D14FF68F731A404B889B
:101BF0001A43174B984207D0164B984204D04FF621
:101C0000FF431A40CB881A4302808B8883850B8858
:101C100003850A4B98420BD0094B984208D00E4BD3
:101C2000984205D00D4B984202D00D4B984201D1FD
:101C30000B7A03860123838270470000002C014049
:101C4000003401400004004000080040000C004047
:101C500000100040001400400040014000440140DA
:101C60000048014010B540F22551174800F0D3FA62
:101C700048B3154800F08AFBC4B214480088B0F598
:101C8000806F12DA00211248FFF797FF0F48008893
:101C900010B90120FFF754FF0C4801880088401C50
:101CA0000A4A10800B4844540DE00848008840F46C
:101CB000004006490880002104480088C0F30E0057
:101CC000401C044A115410BD004C00405C00002030
:101CD000000C0040D84D002070B58CB006460C4674
:101CE000154601210846FFF779FC3046FEF77AFDDC
:101CF000019402951020039000200490059080200C
:101D0000069000200790089009904FF480500A90A8
:101D100000200B9001A93046FEF70EFE0CB070BDFE
:101D200070B504460D4600212046FEF74FFD2946BA
:101D30002046FEF71FFE01212046FEF747FD70BD3D
:101D400010B540F22551164800F065FA38B3144832
:101D500000F01CFBC4B213480088B0F5806F12DAA3
:101D600000211148FFF729FF0E48008810B9012013
:101D7000FFF7B2FE0B4801880088401C094A10801A
:101D80000A4844540BE00748008840F400400549E5
:101D9000088000200988C1F30E01044A505410BD88
:101DA000003801406400002000080040D8530020A3
:101DB00010B586B0044601210420FFF73FFC012145
:101DC0008803FFF73BFC2E4800F0CAF94FF400707F
:101DD000ADF8100003208DF8120018208DF81300C4
:101DE00004A92848FFF71EF84FF48060ADF81000F2
:101DF00004208DF8130004A92248FFF713F800947B
:101E00000020ADF80400ADF80600ADF80800ADF80C
:101E10000C000C20ADF80A006946194800F04AFA97
:101E200001228021164800F091F9174A1449091D32
:101E30001648FFF751FF0121114800F07BF90122FC
:101E400040F225510E4800F010FA25208DF81400BC
:101E500003208DF8150001208DF816008DF817006D
:101E600005A8FFF777FB4FF4E151C720FFF708FE05
:101E7000002007490880FFF72FFE06B010BD0000C4
:101E80000038014000080140D851002044000240C1
:101E90006400002010B540F22551164800F0BBF94F
:101EA00038B3144800F072FAC4B213480088B0F591
:101EB000805F12DA00211148FFF77FFE0E4800888C
:101EC00010B90120FFF7A8FD0B4801880088401CCD
:101ED000094A10800A4844540BE00748008840F43F
:101EE00000400549088000200988C1F30E01044A1A
:101EF000505410BD00440040660000200004004023
:101F0000D867002010B586B0044601210420FFF7F1
:101F100095FB01214804FFF771FB2C4800F020F9E4
:101F20000420ADF8100003208DF8120018208DF861
:101F3000130004A92648FEF775FF0820ADF810002D
:101F400004208DF8130004A92148FEF76BFF0094CC
:101F50000020ADF80400ADF80600ADF80800ADF8BB
:101F60000C000C20ADF80A006946184800F0A2F9F0
:101F700001228021154800F0E9F8164A1349091D8D
:101F80001548FFF7A9FE0121104800F0D3F80122FF
:101F900040F225510D4800F068F926208DF8140014
:101FA00001208DF815008DF816008DF8170005A892
:101FB000FFF7D0FA41F61F416320FFF701FD002033
:101FC00006490880FFF728FD06B010BD0044004018
:101FD00000080140D8570020800002406600002021
:101FE00010B540F22551174800F015F940B31548D7
:101FF00000F0CCF9C4B214480088B0F5805F13DA61
:1020000000214FF08040FFF7D8FD0F48008810B93D
:102010000120FFF7A1FC0C4801880088401C0A4AF7
:1020200010800A4844540BE00748008840F4004000
:102030000549088000200988C1F30E01034A505465
:1020400010BD00000048004068000020D887002034
:1020500010B586B0044601210820FFF7EFFA0121F0
:102060008804FFF7CBFA2E4800F07AF84FF480602E
:10207000ADF8100003208DF8120018208DF8130021
:1020800004A92848FEF7CEFE4FF40060ADF810001A
:1020900004208DF8130004A92248FEF7C3FE009423
:1020A0000020ADF80400ADF80600ADF80800ADF86A
:1020B0000C000C20ADF80A006946194800F0FAF847
:1020C00001228021164800F041F8174A1449091DE1
:1020D0001648FFF701FE0121114800F02BF80122FC
:1020E00040F225510E4800F0C0F827208DF814006A
:1020F00000208DF8150001208DF816008DF81700CE
:1021000005A8FFF727FA4FF4E151C720FFF7FAFBC4
:10211000002007490880FFF71FFC06B010BD000033
:1021200000480040000C0140D87700201C0002400D
:102130006800002021B1828942F40052828104E0CB
:1021400082894DF6FF731A40828170471AB1838AE3
:102150000B43838202E0838A8B43838270470000B3
:1021600010B504462048844209D101218803FFF7B5
:1021700075FA00214FF48040FFF770FA32E01B48F7
:10218000844209D101214804FFF748FA00214FF4A5
:102190000030FFF743FA25E01548844209D10121B8
:1021A0008804FFF73BFA00214FF48020FFF736FA4E
:1021B00018E01048844209D10121C804FFF72EFA23
:1021C00000214FF40020FFF729FA0BE00A4884426F
:1021D00008D101210805FFF721FA00214FF48010F2
:1021E000FFF71CFA10BD0000003801400044004019
:1021F00000480040004C00400050004002460020D3
:10220000B1F5007F00D100BF13880B400BB1012056
:1022100000E00020704770B502460024002300252E
:10222000002040F66A16B14200D100BFC1F342154A
:1022300001F01F03012606FA03F3012D02D196894E
:10224000334006E0022D02D1168A334001E0968A1F
:1022500033400C12012606FA04F41688344013B1F8
:102260000CB1012000E0002070BDF0B50346002451
:1022700000260025002040F66A17B94200D100BFB1
:102280001846C1F3421401F01F06012707FA06F5AC
:10229000012C01D10C3004E0022C01D1103000E0FF
:1022A00014301AB107682F43076002E00768AF4394
:1022B0000760F0BD2DE9F04786B005460E460024C4
:1022C000A24600BFA1460027B08900B100BF2F463B
:1022D0002C8A4CF6FF700440F08804432C82AC89B1
:1022E0004EF6F3100440B0883189084371890843E1
:1022F0000443AC81AC8A4FF6FF400440B0890443EC
:10230000AC8201A8FFF7BAF91F48874202D1DDF875
:1023100010A001E0DDF80CA0A88900F4004040B155
:102320000AEBCA0000EB0A1031684900B0FBF1F873
:1023300007E00AEBCA0000EB0A1031688900B0FB25
:10234000F1F86420B8FBF0F004012009642101FBDE
:102350001089A88900F4004040B1322000EBC90088
:10236000B0FBF1F000F00700044308E0322000EB7E
:1023700009106421B0FBF1F000F00F0004432C8140
:1023800006B0BDE8F08700000038014001468888AB
:10239000C0F30800704700BFFEE700000EB5012142
:1023A0008120FFF74BF900F021F84FF40070ADF8F1
:1023B000080048208DF80B0002A90B48FEF732FDFB
:1023C00009210520FEF70EFD4FF40070009000205B
:1023D0008DF804000C208DF8050001208DF8060012
:1023E0006846FEF727FC0EBD001C014008B54FF4FF
:1023F000C060FFF7E7F817208DF8000000208DF887
:1024000001008DF8020001208DF803006846FFF7F7
:10241000A1F808BD08B501214FF4C070FFF70EF90F
:102420008020ADF8000001208DF8020010208DF80A
:10243000030069461548FEF7F5FC4FF40060ADF85F
:10244000000069461248FEF7EDFC4020ADF80000A0
:1024500001208DF8020048208DF8030069460C48E1
:10246000FEF7E0FC4FF48060ADF8000001208DF82D
:10247000020010208DF8030069460548FEF7D2FCE3
:102480004FF480610248FEF761FD08BD0020014065
:10249000001C014010B5FFF7BDFFFFF77FFF10BD27
:1024A0000FB4084B10B504A902AA039800F0E0F895
:1024B000044602A9002000F072FC204610BC5DF822
:1024C00014FB00009F2D000837B514460846064B44
:1024D0006A46214600F0CCF804466946002000F028
:1024E0005EFC20463EBD00009F2D000802E008C8AB
:1024F000121F08C1002AFAD170477047002001E07E
:1025000001C1121F002AFBD1704700002DE9FF5FB7
:10251000DDE90220010DDDF838B0024318D044F6A1
:102520001050A1F2FF3141430D140F98012820D023
:10253000A5EB0B00401C5FEA000A4FF00004474E79
:10254000DFF81C91A046504616D5CAF1000728E0D6
:102550000F98012443A2012808D0002100980F9B66
:10256000C0E90021C0E90243BDE8FF9F6FEA0B010B
:10257000F4E7CBF10000DEE7074612E0F80707D0EA
:102580002246334640464946FDF7AEFE8046894620
:102590002246334610461946FDF7A6FE04460E466F
:1025A0007F10002FEAD1DDE90201BAF1000F4246A7
:1025B0004B4602DAFDF798FE01E0FDF707FF0446FF
:1025C0000E460022284BFEF7D5F803D84FF0FF3017
:1025D000014607E00022254B20463146FDF7DDFD90
:1025E000FEF7AFF8102409E0002C0ADB0A220023D2
:1025F000FDF7B1FF019B30321A55641E50EA01020B
:10260000F2D1641C019AC4F1110314440F9A012AF7
:1026100003D0012208430DD10AE0084304D0002072
:102620004FF0110B0F9080E7A3EB0B056D1E0DE033
:102630005B4504DD4FF0000205F1010504E003DA1B
:102640004FF00002A5F10105002AECD000980F9987
:10265000C0E90231C0E9004586E7000000002440DF
:102660000000F03F300000000000F0430000E03FB9
:102670002DE9FF4F95B09B468946064600250FE29F
:10268000252877D100242746F84A0121059400E047
:10269000044316F8013F203B01FA03F01042F7D142
:1026A00030782A2811D06FF02F033078A0F1300253
:1026B000092A16D8059A44F0020402EB820203EBC1
:1026C00042021044761C0590EFE759F8042B05925E
:1026D000002A03DA504244F40054059044F0020406
:1026E000761C30782E2816D116F8010F44F0040419
:1026F0002A280DD06FF02F023078A0F13003092B7B
:1027000009D807EB870302EB4303C718761CF3E7EE
:1027100059F8047B761C30786C280FD006DC4C28E6
:1027200017D068280DD06A2814D104E0742810D07E
:102730007A280FD10DE044F400140AE044F4801428
:1027400001E044F440147278824202D104F580140E
:10275000761C761C307866280BD013DC582877D08E
:1027600009DC002875D04528F6D04628F4D0472843
:102770001AD19DE118E0632835D0642879D0652806
:1027800012D195E1702873D008DC6728F1D0692850
:102790006FD06E280DD06F2806D1B5E073282CD0ED
:1027A000752875D0782874D05A46179990476D1CB3
:1027B00075E1C4F30250022809D003280DD0D9F8DE
:1027C000001004280DD00D6009F1040967E1D9F863
:1027D0000010EA17C1E90052F6E7D9F800100D80A1
:1027E000F2E70D70F0E719F8041B8DF800100020D7
:1027F0008DF80100EA46012003E059F804AB4FF0E0
:10280000FF3061074FF0000102D40DE008F1010133
:102810008846B9420FDA8045F8DB1AF8081000291B
:10282000F4D108E008F1010188468142FADB1AF888
:1028300008100029F6D105985B46A0EB0807214651
:102840003846179A00F094FA284400EB080507E090
:102850004DE029E10DE01AF8010B5A46179990470F
:10286000B8F10108F7D25B4621463846179A13E1C2
:1028700042E00A220092C4F302524FF0000A022AF8
:1028800008D059F804CB032A4FEAEC710AD00DE0C6
:1028900029E02AE009F1070121F00702F2E802C16C
:1028A000914609E00FFA8CFC4FEAEC71042A03D13F
:1028B0004FFA8CFC4FEAEC71002907DA0A46002136
:1028C000DCF1000C61EB02012D2202E0220504D5AF
:1028D0002B228DF80420012203E0E20701D0202200
:1028E000F7E7904659E00A2102E010220DE010219E
:1028F0004FF0000A00910BE010224FF0000A44F064
:1029000004040827009203E008224FF0000A009216
:10291000C4F30252022A05D059F804CB0021032A3D
:1029200008D009E009F1070121F00702F2E802C12D
:10293000914605E01FFA8CFC042A01D10CF0FF0C33
:102940004FF00008220728D5702806D0009B83F09E
:10295000100353EA0A0305D00EE040228DF804204C
:10296000012208E05CEA010206D030228DF8042042
:102970008DF8050002229046009B83F0080353EA7D
:102980000A030AD15CEA010201D1620705D53022AF
:102990008DF804204FF001087F1E582804D034A081
:1029A00003900EA802900DE036A0F9E7534660466A
:1029B000009AFDF7D0FD84460398825C0298401E81
:1029C000029002705CEA0100F0D1029806A9081A90
:1029D00000F1200A600702D524F4803400E00127CA
:1029E000574502DDA7EB0A0000E0002000EB0A01DA
:1029F000009005984144401A0590E00306D45B46D8
:102A00002146179A059800F0B3F90544002706E01F
:102A100001A85A46C05D179990476D1C7F1C474519
:102A2000F6DBE0030CD55B462146179A059800F0CB
:102A30009FF9054404E030205A46179990476D1CD1
:102A40000099481E00900029F5DC08E002980299E0
:102A50005A460078491C0291179990476D1CBAF1AB
:102A60000001AAF1010AF1DC65E10000092801007A
:102A700030313233343536373839616263646566F4
:102A800000000000303132333435363738394142B6
:102A9000434445460000000000F058F90544761C08
:102AA000307800287FF4ECAD19B02846BDE8F08FEF
:102AB000620700D4062709F1070222F0070CFCE8A0
:102AC0000223E14603F000485FEA080C02D00FF24F
:102AD000702C0DE05FEA045C02D50FF2682C07E071
:102AE0005FEAC47C02D00FF2602C01E0AFF2700C00
:102AF0004FF0FF3823F00043CDF850C065280CD0CC
:102B000006DC452809D046281DD047283DD13DE0A8
:102B1000662818D067287ED138E00021112F01DB0C
:102B2000112000E0781CCDE9000106A90EA8FFF7EE
:102B3000EDFCDDE90F010E9A03910021009207F1EF
:102B4000010A04914DE04FF000400097CDE90110DB
:102B500006A90EA8FFF7DAFCDDE90F0203920E9B2F
:102B600011990022DDF80CA00093049211B9791C90
:102B700000EB010AB7EB0A0004D4C0F1FF3007F103
:102B8000010A0490AAEB0700019044E0012F00DA4B
:102B900001270021112F01DD112000E03846CDE989
:102BA000000106A90EA8FFF7B1FCDDE90F010E9A9E
:102BB0000391002104910092BA4621070CD4039995
:102BC000514500DA8A46BAF1010F05DD009AAAF1F3
:102BD0000101515C302908D0B84202DA10F1040F2B
:102BE00006DA0121CDE9011015E0AAF10101E9E7BA
:102BF000002805DC049901440491AAEB000102E0DD
:102C0000411C514500DD8A460499401A401C019040
:102C10004FF000400290200704D40198504501DB9A
:102C2000CDF8048000208DF84F0002980DF14F0779
:102C3000B0F1004F25D02B200E9002984FF00208E3
:102C400000280CDA404202902D200E9007E00A2165
:102C50000298FDF76AFC3031029007F8011DB8F1C7
:102C60000001A8F10108F2DC02980028EFD1791EDA
:102C70000E980870307800F0200040F0450007F80A
:102C8000020D12A8C01B00F107081498007800B1CB
:102C9000012000EB0A01019801EBE0710598414425
:102CA000401A401E0590E00306D45B462146179A61
:102CB000059800F05DF805441498007818B15A465C
:102CC000179990476D1CE00324D55B462146179A5F
:102CD000059800F04DF805441CE00498002807DB37
:102CE000DDE90301884203DD0098405C179901E0AB
:102CF000179930205A469047049805F10105401C69
:102D000004900198401E019004D12E205A46179934
:102D100090476D1CBAF10001AAF1010ADDDC05E063
:102D200017F8010B5A46179990476D1CB8F100012E
:102D3000A8F10108F4DC5B462146179A0598ABE63A
:102D40002D0000002B000000200000002DE9F041C4
:102D5000044600251E461746880404D405E039467B
:102D60002020B0476D1C641EF9D52846BDE8F081CF
:102D70002DE9F041044600251E469046C80301D5C2
:102D8000302700E02027880404D505E04146384676
:102D9000B0476D1C641EF9D52846BDE8F0810A686D
:102DA000531C0B601070704710B56FF00400FEF7F5
:102DB00045FD0A4800680A49B0FBF1F0094908706E
:102DC0000846007800EB4001C1EBC0104FF6FF71E0
:102DD00001EAC0000449088010BD00000000002086
:102DE00000127A006A0000206C0000200146114A9F
:102DF00012884A434FF0E0235A6100229A611A4632
:102E0000126942F001021A6100BF4FF0E02210691E
:102E100000F001021AB100F48032002AF5D04FF020
:102E2000E022126922F001024FF0E0231A61002231
:102E30009A6170476C0000200146114A12784A439B
:102E40004FF0E0235A6100229A611A46126942F05B
:102E500001021A6100BF4FF0E022106900F0010288
:102E60001AB100F48032002AF5D04FF0E022126946
:102E700022F001024FF0E0231A6100229A617047AC
:102E80006A0000200EB5002400BF00BFFEF73EFB25
:102E9000FEF71AFB2C48006808B9012000E000206A
:102EA000294908604FF47A70FFF7A0FF2748D0F84F
:102EB000940108B9012000E00020234908600020A7
:102EC0004FF4A073F02201460090FEF755F847F644
:102ED000FF7000231EA20A2100903220FEF7A0F806
:102EE00002E001A8FDF71DFEFDF794FD0028F8D1D2
:102EF00002E000F07BF80446002CFAD018A120A0D4
:102F000000F084F91FE000BFFDF74CFD074638468E
:102F1000FDF7DCFA05462A460B461CA12248FFF7BE
:102F2000BFFA47F6FF7000231F4A28210090184679
:102F3000FEF776F847F6FF70002309A250210090B3
:102F40001846FEF76DF8DEE79481214200802142A9
:102F500057656C636F6D6520746F2048495400009D
:102F600053756D6D6572207363686F6F6C5F475347
:102F70004D206D6F64756C6520746573740000007E
:102F80003138383436383332343533004375727261
:102F9000656E742074656D706572617475726520FC
:102FA00069733A252E3266008100002070B5044610
:102FB00000250C48008800F4004070B10020094949
:102FC0000988C1F30E01084A505421461046FDF706
:102FD000CBF80546044800F08DF90020014908802F
:102FE000284670BD68000020D887002010B5002456
:102FF0000BE0641C6420FFF7F9FE0A2C04DB1EA022
:1030000000F078F9002010BD00BFC8221DA11EA04D
:1030100000F0C0F80028ECD100BF00240BE0641CD5
:103020006420FFF7E3FE0A2C04DB13A000F062F932
:103030000020E8E700BFC82212A116A000F0AAF8FD
:103040000028ECD100BF00240BE0641C6420FFF7D3
:10305000CDFE0A2C04DB08A000F04CF90020D2E7DA
:1030600000BFC82207A10FA000F094F80028ECD1FF
:1030700000BF0120C7E700006F7574204641494C2E
:103080000D0A00004F4B000041542B434D47463D75
:103090003100000041542B435343533D2247534DCD
:1030A0002200000041542B434E4D493D322C32004A
:1030B00010B500240AE0601CC4B26420FFF796FE3D
:1030C0000A2C03DB1CA000F015F906E0C8221DA1A4
:1030D0001DA000F05FF80028EDD100BF00240AE039
:1030E000601CC4B26420FFF781FE0A2C03DB17A02A
:1030F00000F000F906E0C82217A119A000F04AF874
:103100000028EDD100BF00240AE0601CC4B2642096
:10311000FFF76CFE0A2C03DB14A000F0EBF806E0CE
:10312000C82215A115A000F035F80028EDD100BF88
:1031300015A000F0DFF810BD53494D204641494C21
:10314000310D0A004F4B00004154000053494D20FF
:103150004641494C320D0A00524541445900000095
:1031600041542B4350494E3F0000000053494D202D
:103170004641494C330D0A00302C310041542B4359
:103180005245473F00000000737563636573730D1C
:103190000A0000002DE9F04104460E4615460027BE
:1031A000002016490880FF2C07D800BF1448006A89
:1031B0000028FBD113490C8003E0214612A000F047
:1031C000C3F8C6B1BDB10FE00A20FFF70FFE0B48F0
:1031D000008800F4004038B13046FFF7E7FE00B148
:1031E00006E0002005490880681E80B20500EBD18A
:1031F00000BF05B901273846BDE8F081680000200E
:10320000000002400448004025730D0070B50446DC
:103210000D46204E224620A13046FFF741F9642298
:1032200021A122A0FFF7B6FF08B1002070BD6422E3
:103230001DA121A0FFF7AEFF08B10020F6E7642230
:1032400019A121A0FFF7A6FF08B10020EEE7642234
:1032500015A120A0FFF79EFF08B10020E6E7C822D5
:1032600021A13046FFF796FF08B10020DEE7C82213
:103270000CA12846FFF78EFF08B10020D6E740F6E4
:10328000B8321AA11A20FFF785FF08B10020CDE758
:103290000020CBE7E538002041542B434D47533DF8
:1032A00022257322000000004F4B000041542B43A5
:1032B0004D47463D3100000041542B435343533D9D
:1032C0002247534D2200000041542B435343413FBA
:1032D0000000000041542B43534D503D31372C31F9
:1032E00036372C302C3235003E0000002B434D4742
:1032F000533A00000FB438B505A8009000BF402134
:103300000E48FEF77BFF0028F9D00D48009A04997B
:10331000FFF7DAF80020009000BF0A48FDF708FB2D
:103320000028FAD10648FCF731FFC4B2214605480F
:10333000FEF7F6FC38BC5DF814FB000000440040CA
:10334000D8570020800002400FB438B505A800907F
:1033500000BF40210E48FEF751FF0028F9D00D486C
:10336000009A0499FFF7B0F80020009000BF0A48C7
:10337000FDF7DEFA0028FAD10648FCF707FFC4B2D1
:1033800021460548FEF7CCFC38BC5DF814FB000074
:1033900000480040D87700201C00024000000000D8
:1033A0000000000000000000000000000000001805
:1033B0003C3C3C1818001818000000000000006693
:1033C0006666000000000000000000000000006CC5
:1033D0006CFE6C6C6CFE6C6C000000000018183CFD
:1033E00066060C183060663C1818000000000E1BC2
:1033F0005B6E30180C76DAD8700000000000001CFC
:1034000036361C06F66666DC000000000000001878
:10341000181800000000000000000000000000304C
:1034200018180C0C0C0C0C18183000000000000CC4
:103430001818303030303018180C00000000000030
:10344000006C38FE386C0000000000000000000036
:103450000018187E1818000000000000000000008E
:1034600000000000000038383018000000000000A4
:103470000000007E000000000000000000000000CE
:10348000000000000000383800000000000000606C
:1034900060303018180C0C060600000000000078A0
:1034A000CCECECCCDCDCCC78000000000000003080
:1034B000383E303030303030000000000000003C3A
:1034C00066666030180C067E000000000000003CBC
:1034D000666660386066663C000000000000000C14
:1034E0000C6C6C6C66FE6060000000000000007EEA
:1034F0000606063E6060301E000000000000003836
:10350000180C3E666666663C000000000000007E07
:1035100060303018180C0C0C000000000000003C5B
:1035200066666E3C7666663C000000000000003C6B
:10353000666666667C30181C000000000000000013
:10354000003838000000383800000000000000009B
:1035500000383800000038383018000000000060E3
:1035600030180C060C18306000000000000000004D
:1035700000007E007E000000000000000000000649
:103580000C18306030180C06000000000000003CF1
:103590006666301818001818000000000000007E51
:1035A000C3C3F3DBDBF303FE0000000000000018E0
:1035B0003C6666667E666666000000000000003EAF
:1035C0006666663E6666663E000000000000003CDF
:1035D000666606060666663C000000000000001EE7
:1035E000366666666666361E000000000000007ED5
:1035F0000606063E0606067E000000000000007E6D
:103600000606063E06060606000000000000003C16
:10361000666606067666667C0000000000000066AE
:103620006666667E66666666000000000000003C16
:10363000181818181818183C000000000000006046
:10364000606060606066663C00000000000000662C
:103650006636361E3636666600000000000000063C
:10366000060606060606067E00000000000000C6EC
:10367000C6EED6D6D6C6C6C600000000000000C6FC
:10368000C6CEDEF6E6C6C6C6000000000000003C5E
:10369000666666666666663C000000000000003EE6
:1036A0006666663E06060606000000000000003C56
:1036B000666666666666663C306000000000003E36
:1036C0006666663E36666666000000000000003CE6
:1036D00066060C183060663C000000000000007EAA
:1036E00018181818181818180000000000000066B4
:1036F000666666666666663C00000000000000665E
:103700006666666666663C1800000000000000C63B
:10371000C6C6D6D6D66C6C6C0000000000000066F1
:10372000662C18183466666600000000000000660B
:103730006666663C18181818000000000000007E3D
:10374000606030180C06067E000000000000003C9F
:103750000C0C0C0C0C0C0C0C0C0C3C0000000006AF
:10376000060C0C1818303060600000000000003CAF
:10377000303030303030303030303C0000183C6673
:103780000000000000000000000000000000000039
:1037900000000000000000000000FF00001C1830C6
:1037A0000000000000000000000000000000000019
:1037B000003C60607C66667C000000000000000643
:1037C000063E66666666663E000000000000000079
:1037D000003C66060606663C000000000000006033
:1037E000607C66666666667C000000000000000083
:1037F000003C66667E06063C000000000000007883
:103800000C0C0C7E0C0C0C0C0000000000000000E6
:10381000007C66666666667C60603E0000000006AE
:10382000063E6666666666660000000000001818C0
:10383000001E18181818187E000000000000303014
:10384000003C30303030303030301E000000000698
:10385000066666361E366666000000000000001E22
:10386000181818181818187E000000000000000032
:10387000007ED6D6D6D6D6C60000000000000000D6
:10388000003E666666666666000000000000000096
:10389000003C66666666663C0000000000000000B2
:1038A000003E66666666663E06060600000000008C
:1038B000007C66666666667C6060600000000000F2
:1038C0000066760E060606060000000000000000F6
:1038D000007C06063C60603E000000000000000C1A
:1038E0000C7E0C0C0C0C0C7800000000000000009A
:1038F000006666666666667C0000000000000000E8
:103900000066666666663C18000000000000000065
:1039100000C6D6D6D6D66C6C0000000000000000B1
:103920000066663C183C666600000000000000006F
:10393000006666666666663C30180F000000000090
:10394000007E6030180C067E000000000000003091
:103950001818180C060C1818183000000000001871
:103960001818181818181818181818000000000C43
:103970001818183060301818180C00000000008E5D
:10398000DB7100000000000000000000AC390008FE
:103990000000002070000000EC2400081C3A000821
:1039A00070000020689B0000FC24000800A24A046C
:1039B00000000000000000000102030406070809DF
:1039C00000000000010203040102030406070809C5
:1039D00002040608925ED4EE5701B63F2BA226FAE7
:1039E0007C9451BF3CF54883DBEA13C079E926316A
:1039F00008AC5CBF08E8BE9CD9AEB03F1C5C3AE6A0
:103A00003CA32AC0000000000000000000000000ED
:0C3A1000000000000000000000000000AA
:0400000508000131BD
:00000001FF
