:020000040800F2
:10000000509D002045010008711F000801130008E1
:10001000F51800089D090008672F0008000000007F
:10002000000000000000000000000000292200087D
:10003000E50D000800000000052000083724000836
:100040005F0100085F0100085F0100085F01000810
:100050005F0100085F0100085F0100085F01000800
:100060005F0100085F0100085F0100085F010008F0
:100070005F0100085F0100085F0100085F010008E0
:100080005F0100085F0100085F0100085F010008D0
:100090005F0100085F0100085F010008E90D00082A
:1000A0005F0100085F0100085F0100085F010008B0
:1000B0009924000851250008112600085F01000856
:1000C0005F0100085F0100085F0100085F01000890
:1000D0005F01000811290008652A0008B12B0008FB
:1000E0005F0100085F0100085F0100085F01000870
:1000F0005F0100085F0100085F0100085F01000860
:100100005F0100085F010008D12600085F010008B8
:10011000352800085F0100085F0100085F01000842
:100120005F0100085F0100085F0100085F0100082F
:10013000DFF80CD000F020FC00480047553A0008DA
:10014000509D00200648804706480047FEE7FEE72E
:10015000FEE7FEE7FEE7FEE7FEE7FEE7FEE7FEE777
:10016000392400083101000830B505462A460B46FF
:1001700012F8010B13F8014B08B1A042F8D01CB1E2
:10018000002802D06D1CF1E7284630BD421C10F853
:10019000011B0029FBD1801A7047F0B480EA0102EC
:1001A000D40F4200B2EB410F02D20246084611467C
:1001B0004A0042D0C30DDDB2C1F3C752AD1A202DA3
:1001C00035DAC1F3160141F4000204B15242C5F11F
:1001D000200602FA06F12A411044B3EBD05F23D087
:1001E000C4B1012DA0EBC35009DCF0BC4FF00042BC
:1001F00002EAC352DBB200F5000000F001BB400090
:1002000000F1807000EBC350A0F1807040EAD17023
:10021000490009E0490841EAC071A0EBC35000F56C
:100220000000400800EBC350F0BC00F0E0BA6142AF
:10023000012202EB4101001BF6E7F0BC704781F0A0
:100240000041AAE780F00040A7E780EA010210B56C
:1002500002F00043400022D04A001FD0010E01EB03
:100260001261C0F35600C2F3560240F4000042F49B
:100270000002A0FB022000047F39140400D0401CBF
:1002800050EA124001D44000491EC2B20C0604EBF1
:10029000D010401C4008802A02D003E0002010BD8E
:1002A00020F00100002900DA0020184310BD30B40E
:1002B00080EA010202F0004530F0004221F00040E7
:1002C00013D090B1C30DD40DC2F31601C0F31600C4
:1002D000E41A41F4000140F400027D34914201D35C
:1002E000641C00E04900002C02DA30BC002070479A
:1002F0004FF400000023914201D3891A03434008C0
:100300004FEA4101F7D151B1914202D14FF0004182
:1003100005E002D24FF0010101E06FF0010103EBB3
:10032000C450284430BC00F062BA2DE9FE4F80462C
:1003300081EA0300C00F0C46009021F0004123F039
:100340000045B8EB0200A94105D24046214690463F
:100350001C460B46024623F00040104347D0270DB1
:10036000C7F30A00C3F30A510290401A01904028D3
:100370006BDAC3F3130040F4801B0098924620B15F
:100380000023D2EB030A63EB0B0B01985946C0F133
:100390004002504600F0FAF906460D4650465946CE
:1003A000019A00F012FA10EB08006141002487EA7C
:1003B000115284EAE7731A4340D0009A62B3019A5B
:1003C000012A4FEA075215DC001B61EB02014FF0D6
:1003D000004202EA0752CDE90042001C41F58011BB
:1003E00032462B4600F049FA03B0BDE8F08F404694
:1003F0002146F9E7001B61EB0201001C41F5801367
:1004000000185B412018A2F5001747EB030140EAF2
:10041000D570B6196D4111E06D084FEA360645EA10
:10042000C0754FEA0752001B61EB0201001C41F549
:10043000801149084FEA30000019514132462B46DD
:1004400003B0BDE8F04F00F009BA00980122400067
:100450000023D0EB020263EBE073009821464FEAE1
:10046000E074B8EB000061EB0401E9E783F00043BE
:100470005BE781F0004158E72DE9FE4F81EA030474
:1004800004F0004421F0004100944FF0000B23F0F1
:10049000004350EA01045ED052EA03045BD0C3F388
:1004A0000A54C1F30A552C44A4F2F3340194A0FB7E
:1004B0000254C1F3130141F48011C3F3130343F455
:1004C000801301FB024400FB034E840A970A44EAAE
:1004D000815447EA8357A4FB076802958D0A05FB00
:1004E00007854FEA932C04FB0C542705029D4FEA25
:1004F000065847EA1637B5EB08056EEB070C870E72
:10050000920E47EA811742EA8312A7FB0201B6EB7B
:100510000B0164EB00042B0D43EA0C335E1844EB33
:100520001C50DA465146E7FB0201C5F313044FEABB
:100530000B3343EA14534FEA0432019C43EA0603A7
:10054000A4F10C040294009CCDE900B400F095F9EC
:1005500003B0BDE8F08F00200146F9E72DE9F04D2A
:1005600081EA030404F0004B21F0004514464FF0EB
:10057000000A23F0004150EA050220D054EA0102AB
:100580001DD0C5F30A570246C5F31303C1F3130088
:10059000C1F30A5640F4801543F48013A7EB060814
:1005A000101BD64608F2FD3873EB050002D308F1A4
:1005B000010801E092185B41B8F1000F03DA002056
:1005C0000146BDE8F08D00204FF4801106468446B8
:1005D0000EE0171B73EB050705D3121B63EB050336
:1005E00006434CEA010C49084FEA300092185B417F
:1005F00050EA0107EDD152EA030012D082EA04006A
:1006000083EA0501084305D0101BAB4106D2012245
:10061000002306E000224FF0004302E06FF00102E9
:1006200053101AEB06004CEB085110EB0A0041EB9B
:100630000B01BDE8F04D00F011B9C10F80EAE07088
:100640000844CA079623002100F0DAB89623002256
:10065000114600F0D5B80EB5C10F80EAE07008442D
:10066000CA07002140F233438DE80E000A460B46CC
:1006700000F003F903B000BD20F00040C10DC0F34D
:10068000160040F400007F2901DA00207047962907
:1006900003DCC1F19601C840704796398840704725
:1006A00000F0004230F000400AD0C10D01F5607149
:1006B000C0F3160042EA0151C208400711437047D7
:1006C00000200146704701F0004330B421F00041A2
:1006D00050EA010206D00A0DA2F56072C1F31301BF
:1006E000002A02DC30BC00207047440F44EAC104F9
:1006F000C100E01830BC00EBC25000F078B830B553
:100700000B46014600202022012409E021FA02F5CF
:100710009D4205D303FA02F5491B04FA02F5284469
:10072000151EA2F10102F1DC30BD2DE9F05F054696
:10073000002092469B4688460646814640241BE0A0
:10074000284641464746224600F02FF853465A466F
:10075000C01A914110D311461846224600F016F8EF
:100760002D1A67EB01084F4622460120002100F0B8
:100770000DF817EB00094E41201EA4F10104DFDC47
:10078000484631462A464346BDE8F09F202A04DB0E
:10079000203A00FA02F1002070479140C2F1200394
:1007A00020FA03F3194390407047202A04DB203AD3
:1007B00021FA02F00021704721FA02F3D040C2F181
:1007C00020029140084319467047202A06DBCB17C8
:1007D000203A41FA02F043EAE07306E041FA02F3FC
:1007E000D040C2F1200291400843194670470029C9
:1007F000A8BF7047401C490008BF20F001007047A7
:1008000010B4B0FA80FC00FA0CF050EA010404BF06
:1008100010BC704749B1CCF1200421FA04F411FA5C
:100820000CF118BF012121430843A3EB0C01CB1DA0
:100830004FEA00614FEA102042BF002010BC704711
:1008400000EBC35010440029A4BF10BC7047401CEB
:10085000490008BF20F0010010BC704710B5141EFD
:1008600073F1000408DA401C41F1000192185B4169
:100870001A4301D120F0010010BD2DE9F04D924640
:100880009B4611B1B1FA81F202E0B0FA80F2203257
:100890009046FFF77BFF04460F4640EA0A0041EA14
:1008A0000B0153465A46084313D0114653EA010040
:1008B00019D0C8F140025046FFF777FF05460E46B3
:1008C000504659464246FFF761FF084305D00120D4
:1008D00004E020463946BDE8F08D0020054346EA95
:1008E000E0762C4337430A986305E40AA0EB08003E
:1008F0000022FD0A44EA47540A3002D5002001468E
:10090000E9E7010510196941DDE908450019694168
:10091000BDE8F04DA2E7C1F30A52C1F3130140F262
:10092000FF3341F480119A4202DA002001467047F9
:1009300040F233439A42A2F2334202DC5242FFF7C2
:1009400034BFFFF723BF000030B5041E71F100046F
:1009500004DB4FF00044404264EB0101141E73F1CC
:10096000000405DB1C464FF00043524263EB0403D6
:10097000994208BF904230BD064C074D06E0E06842
:1009800040F0010394E8070098471034AC42F6D3D6
:10099000FFF7D2FB94460008B446000800BFFEE70C
:1009A0000246134610E010782A2805D01078202837
:1009B00002DB10787A2801DDFF20704710782C28A0
:1009C00001D1481EC1B2521C0029ECD1D01AC0B2CC
:1009D000F3E721B1026842F00102026004E002681C
:1009E0004FF6FE731A4002607047000001684FF630
:1009F000FE72114001600021016041608160C160B0
:100A00004B49884208D14A490839496841F00F01E9
:100A1000474A083A51608AE045491431884208D172
:100A200043490839496841F0F001414A083A5160A8
:100A30007DE03F492831884208D13D49083949685D
:100A400041F470613A4A083A516070E038493C31EB
:100A5000884208D136490839496841F47041344A1E
:100A6000083A516063E032495031884208D1304938
:100A70000839496841F470212D4A083A516056E01E
:100A80002B496431884208D129490839496841F421
:100A90007001274A083A516049E025497831884277
:100AA00008D123490839496841F07061204A083A61
:100AB00051603CE01F49884206D1011F096841F09E
:100AC0000F01021F116032E01A491431884208D127
:100AD0001849091F096841F0F001164A121F1160F8
:100AE00025E014492831884208D11249091F0968B4
:100AF00041F470610F4A121F116018E00D493C313A
:100B0000884208D10B49091F096841F47041094A1C
:100B1000121F11600BE007495031884207D1054987
:100B2000091F096841F47021024A121F11607047C1
:100B300008000240080402400146486880B270473D
:100B400010B50022026847F6F0739A430C6A8B686E
:100B500023430C6923434C6923438C692343CC69A9
:100B600023434C6A23438C6A23431A430260CB68B5
:100B700043600B6883604B68C36010BD4160704781
:100B800008B50121202001F079FA4020ADF80000DD
:100B900010208DF8030003208DF8020069460248FA
:100BA00000F0FEFA08BD0000001401402DE9F05FDE
:100BB00000F0E0F8442000F0E7F800F0DBF8BE2099
:100BC00000F0E2F800F0A0F8834600F09DF88246BD
:100BD0004FEA0A2004B244EA0B04002C0DDAE04389
:100BE000401CFFF738FD074600220B4BFFF744FC83
:100BF0000546FFF768FD81460BE02046FFF72BFD19
:100C000007460022044BFFF737FC0546FFF75BFD64
:100C100081464846BDE8F09F0000B03F10B5FFF7A1
:100C2000AFFF4021034800F051FB00F08DF800F0C9
:100C300023F810BD0014014008B54020ADF80000B5
:100C400048208DF803006946014800F0A9FA08BD64
:100C50000014014008B54020ADF8000010208DF8C8
:100C6000030003208DF802006946024800F098FA5C
:100C700008BD00000014014010B50024FFF7DCFFA0
:100C800004E0601CC4B2012002F0BEFE40210F4807
:100C900000F011FB08B1642CF3DB642C01DB0120B4
:100CA00010BD002404E0601CC4B2012002F0ACFEC0
:100CB0004021064800F0FFFA08B9F02CF3DBF02CD5
:100CC00001DB0120ECE70020EAE70000001401400E
:100CD00010B5FFF7BFFF40210A4800F0F5FA0A20DF
:100CE00002F092FEFFF7A8FF4021064800F0E3FA69
:100CF000012801D1012400E000242D2002F084FE0F
:100D0000204610BD0014014070B50026002408E004
:100D1000FFF7DEFF054605FA04F03043C6B2601C5B
:100D2000C4B2082CF4DB304670BD70B505463320E4
:100D300000F02AF8002404E0FFF7E6FF2855601CC5
:100D4000C4B2082CF8DB70BD10B5FFF783FF40215B
:100D5000074800F0B9FA40F2EE2002F055FE4021BB
:100D6000034800F0B3FA0F2002F04EFE10BD000061
:100D70000014014010B5FFF7E7FFFFF77DFFCC201F
:100D800000F002F810BD000070B50446FFF762FFE6
:100D9000002522E004F00106641076B140211048DD
:100DA00000F092FA082002F02FFE40210C4800F0DB
:100DB0008DFA3A2002F028FE0DE04021084800F0AC
:100DC00083FA462002F020FE4021054800F07EFA1A
:100DD000022002F019FE681CC5B2082DDADB70BDD6
:100DE000001401407047000010B54FF4007000F08F
:100DF00011F828B1012003490870400200F004F8FE
:100E000010BD0000A00000200149086070470000EC
:100E100014040140014600200022074B1B6803EA2E
:100E20000102054B14331B680B4013B10AB10120BA
:100E300000E0002070470000000401400021234929
:100E40008279002A3AD00A46126803689A430B4610
:100E50001A600A1D126803689A430B1D1A60027912
:100E600011440A6803681A430A60184A0832126873
:100E700003689A43154B08331A601A1D12680368F9
:100E80009A43124B0C331A604279102A0ED11A1F62
:100E9000126803681A430D4B08331A601A1D126852
:100EA00003681A43094B0C331A600DE00749427975
:100EB00011440A6803681A430A6005E00279114484
:100EC0000A6803689A430A60704700000004014002
:100ED00051B18200A2F1C042126842F001038200C7
:100EE000A2F1C042136009E08200A2F1C042126880
:100EF000034B1A408300A3F1C0431A6070470000FF
:100F0000FEFF0F00D0E901121143C26811430269CC
:100F100011434269114382691143C2691143026A54
:100F20001143426A1143826A1143C26A1143026B40
:100F3000114302689200A2F1C04211608168082941
:100F40000BD101688900A1F1C041096841F040025C
:100F500001688900A1F1C0410A60416B0968426BD8
:100F6000526841EA0211426B926841EA0221426BE7
:100F7000928941EA0241426B128A41EA0251426B74
:100F8000127D41EA0261426B926911430268521C70
:100F90009200A2F1C0421160C16AB1F5804F1BD12D
:100FA000816B0968826B526841EA0211826B926818
:100FB00041EA0221826B128A41EA0251826B127D60
:100FC00041EA0261826B9269114302689200A2F1C8
:100FD000C042C2F8041107E06FF070420168890056
:100FE000A1F1C041C1F80421704700002DE9FE4F76
:100FF0000446444890F85C0003287DDC414890F8A2
:101000005C00414951F8202040A1204602F030F810
:101010003C49D1F84900FFF719FB8246FFF740FB36
:10102000074600223A4BFFF799FA0546FFF74BFBBC
:1010300081464846FFF734FB0546324890F84D009C
:101040002246CDE90051029032A1204602F010F86C
:101050002C49486CFFF7FAFA8246FFF721FB074656
:1010600000222B4BFFF77AFA0546FFF72CFB81464F
:101070004846FFF715FB0546224890F848002246EF
:10108000CDE90051029027A1204601F0F1FF1D4952
:10109000D1F86300FFF7D1FA8246FFF701FB07465C
:1010A0000022244BFFF75AFA0546FFF70CFB814656
:1010B0004846FFF7F5FA2246CDE900011EA1204679
:1010C00001F0D6FF0F49B1F86700FFF7BFFA82467B
:1010D000FFF7E6FA074600221B4BFFF73FFA0546EB
:1010E000FFF7F1FA81464846FFF7DAFA2246CDE9E2
:1010F000000116A1204600E001E001F0B9FFBDE8C3
:10110000FE8F0000B800002044000020257300007E
:10111000006AF84025732C4C6F6E673A252E3266B4
:101120002531630025732C4C6174693A252E326693
:10113000253163000000244025732C416C74693A0A
:10114000252E32666D00000000408F4025732C5321
:10115000706565643A252E32666B6D2F680000005D
:1011600030B500228B071C0F0F2303FA04F20B4B40
:101170008C1053F824309343084C8D1044F82530DC
:1011800023468C1053F824308C07240F00FA04F403
:101190002343024C8D1044F8253030BD0800014037
:1011A0002DE9F041024600250026002000230024FE
:1011B000002791F803C00CF00F0591F803C00CF064
:1011C000100CBCF1000F03D091F802C04CEA0505E9
:1011D00091F800C0BCF1000F31D0146800202BE062
:1011E0004FF0010C0CFA00F3B1F800C00CEA030652
:1011F0009E4220D183004FF00F0C0CFA03F7BC4342
:1012000005FA03FC4CEA040491F803C0BCF1280F72
:1012100006D14FF0010C0CFA00FCC2F814C00AE031
:1012200091F803C0BCF1480F05D14FF0010C0CFA46
:1012300000FCC2F810C0401C0828D1D31460B1F8DB
:1012400000C0BCF1FF0F34DD546800202EE000F137
:10125000080C4FF0010808FA0CF3B1F800C00CEAD2
:1012600003069E4221D183004FF00F0C0CFA03F7C6
:10127000BC4305FA03FC4CEA040491F803C0BCF13A
:10128000280F05D100F1080C08FA0CF8C2F81480F8
:1012900091F803C0BCF1480F07D100F1080C4FF0E2
:1012A000010808FA0CF8C2F81080401C0828CED3B8
:1012B0005460BDE8F0810246002093680B400BB1FA
:1012C000012000E0002070474161704701617047D4
:1012D00070B504460D462946204600F063FB2946BA
:1012E000204600F0E1FB2946204600F005FB294698
:1012F000204600F09FFC2946204600F0EFFD70BD1F
:1013000000BFFEE710B5044624B140210448FFF7B2
:10131000DBFF03E040210248FFF7D8FF10BD0000CB
:10132000002001402DE9F04106460F4614461D46B7
:10133000DDF818802B4622463946304600F033F956
:1013400004FB05F0414600F09DF8BDE8F08101B5D1
:1013500002E00098401E009000980028F9D108BDD6
:101360002DE9F05F81468A4615461E46A5F120000C
:1013700000F0FF0B102308225146484600F013F9F5
:101380002C2000F06FFA00241AE00F4800EB0B103D
:10139000075D4FF000080EE007F0010018B10A9851
:1013A00000F064FA02E0304600F060FA7F1008F1C5
:1013B000010000F0FF08B8F1080FEDDB601CC4B2BB
:1013C000102CE2DBBDE8F09F184000082DE9F8433F
:1013D00005460E4614461F46DDF820801AE02846D2
:1013E0000830F02803DD002506F1100086B23046F3
:1013F0001030B0F5A07F01DD00250026CDF800807B
:1014000022783B4631462846FFF7AAFF641C05F1C7
:10141000080085B220780028E1D1BDE8F88300B546
:1014200097B00121080200F0F9FD02200190002090
:1014300002900520039000200490059006904FF044
:1014400080500790062008900020099008200A90FC
:1014500010200B9000200C900E900F9010904FF4E5
:1014600080501190002012901390149001A81590B4
:10147000169008A8FFF746FD01210620FFF728FD7A
:1014800017B000BD70B504460D4600262C2000F0B4
:10149000E9F900BF03E0284600F0E8F9761CA6420F
:1014A000F9D370BD08B50121084600F0E7FD012120
:1014B000602000F0E3FD03208DF8020018208DF875
:1014C00003004CF20370ADF8000069462C48FFF7AA
:1014D00067FE4FF68070ADF8000069462948FFF7B7
:1014E0005FFE03208DF8020018208DF80300102005
:1014F000ADF8000069462248FFF752FE2020ADF803
:10150000000069461E48FFF74BFE0121080200F06B
:10151000B5FD4FF48050ADF8000069461A48FFF75A
:101520003FFE0121402000F0A9FD0420ADF800009D
:1015300069461448FFF734FE10208DF8030003209D
:101540008DF802000121080200F098FD4FF40060C0
:10155000ADF8000069460C48FFF722FE10208DF818
:10156000030003208DF802000121080200F086FD2F
:101570004020ADF8000069460348FFF711FE08BDA2
:1015800000140140001801400020014010B5FFF791
:1015900089FFFFF744FF0120FFF7B4FE00F04CF98C
:1015A00000F032F810BD2DE9F04104460D46164614
:1015B0001F462A2000F056F9201200F057F9E0B239
:1015C00000F054F9A119491EC1F30F2000F04EF9A3
:1015D000A119491EC8B200F049F92B2000F042F9C8
:1015E000281200F043F9E8B200F040F9E919491E69
:1015F000C1F30F2000F03AF9E919491EC8B200F012
:1016000035F9BDE8F081000010B5CF2000F02AF9CF
:10161000002000F02BF9812000F028F9302000F0A4
:1016200025F9ED2000F01EF9642000F01FF90320D9
:1016300000F01CF9122000F019F9812000F016F9D1
:10164000E82000F00FF9852000F010F9102000F0DC
:101650000DF9782000F00AF9CB2000F003F93920C9
:1016600000F004F92C2000F001F9002000F0FEF851
:10167000342000F0FBF8022000F0F8F8F72000F02A
:10168000F1F8202000F0F2F8EA2000F0EBF800205A
:1016900000F0ECF8002000F0E9F8B12000F0E2F8EA
:1016A000002000F0E3F81B2000F0E0F8B62000F086
:1016B000D9F80A2000F0DAF8A22000F0D7F8C0200C
:1016C00000F0D0F8352000F0D1F8C12000F0CAF8C1
:1016D000112000F0CBF8C52000F0C4F8452000F040
:1016E000C5F8452000F0C2F8C72000F0BBF8A220E2
:1016F00000F0BCF8F22000F0B5F8002000F0B6F8D9
:10170000262000F0AFF8012000F0B0F8E02000F053
:10171000A9F80F2000F0AAF8262000F0A7F824204E
:1017200000F0A4F80B2000F0A1F80E2000F09EF8C5
:10173000092000F09BF8542000F098F8A82000F051
:1017400095F8462000F092F80C2000F08FF8172052
:1017500000F08CF8092000F089F80F2000F086F8DE
:10176000072000F083F8002000F080F8E12000F06E
:1017700079F8002000F07AF8192000F077F81B20A3
:1017800000F074F8042000F071F8102000F06EF8FA
:10179000072000F06BF82A2000F068F8472000F0DE
:1017A00065F8392000F062F8032000F05FF80620A9
:1017B00000F05CF8062000F059F8302000F056F8F0
:1017C000382000F053F80F2000F050F8362000F0D9
:1017D00049F8C82000F04AF82A2000F043F8002019
:1017E00000F044F8002000F041F8002000F03EF83E
:1017F000EF2000F03BF82B2000F034F8002000F040
:1018000035F8002000F032F8012000F02FF83F20DA
:1018100000F02CF83A2000F025F8552000F026F8CA
:10182000112000F01FF80348FFF791FD292000F078
:1018300019F810BDFCBF020010B54FF40061074855
:10184000FFF742FD0648FFF782FD4FF400610348B1
:10185000FFF73CFD0248FFF77AFD10BD0020014074
:10186000FCBF02004FF0D841088070474FF0DA41CA
:101870000880704710B50D4C00F0DEFD02F07CF8DA
:10188000642002F09BF800F01BF84FF4165001F0B2
:1018900077F84FF4165001F01DF94FF4165001F08F
:1018A000BFF900200249088010BD00005E2600201C
:1018B000AE00002010B5FFF769FE01F0D3FB10BDAC
:1018C00008B50121082000F0D9FB2320ADF8000065
:1018D00010208DF8030003208DF8020069460448AB
:1018E000FFF75EFC23210248FFF7F0FC08BD000073
:1018F000000C014000BFFEE7F8B506460F4621A1E7
:101900003846FEF731FC054625B920A13846FEF7DA
:101910002BFC054625B91FA13846FEF725FC0546D8
:1019200025B91EA13846FEF71FFC054606212846AC
:10193000FFF736F80446FF2C05D02819694600F059
:10194000E9FC86F84E0007212846FFF729F80446EF
:10195000FF2C05D02819694600F0DCFC86F84F0002
:1019600009212846FFF71CF80446FF2C09D096F8F9
:101970005C00022805DB2819694600F0CBFCC6F89C
:101980006300F8BD244750474741000024474E47B5
:101990004741000024474C47474100002447424745
:1019A000474100002DE9F8430646884636A14046E7
:1019B000FEF7DAFB054625B935A14046FEF7D4FB14
:1019C000054625B934A14046FEF7CEFB054625B9AC
:1019D00033A14046FEF7C8FB054602212846FEF724
:1019E000DFFF0446FF2C05D02819694600F092FC61
:1019F00086F85C0096F85C00032802DD002086F87B
:101A00005C00002713E0F81CC1B22846FEF7C8FFAF
:101A10000446FF2C08D02819694600F07BFCC1B2AF
:101A200006F15000C15500E003E0781CC7B20C2F4E
:101A3000E9DB00BF0F212846FEF7B2FF0446FF2C6A
:101A400005D02819694600F065FCA6F85D00102154
:101A50002846FEF7A5FF0446FF2C05D02819694645
:101A600000F058FCA6F85F0011212846FEF798FF09
:101A70000446FF2C05D02819694600F04BFCA6F857
:101A80006100BDE8F883000024475047534100003F
:101A900024474E475341000024474C475341000020
:101AA00024474247534100002DE9FC5F07468A4620
:101AB0004FF00008CDF804A056A10198FEF754FBA2
:101AC000044624B955A10198FEF74EFB044624B9FB
:101AD00054A10198FEF748FB044624B953A101988C
:101AE000FEF742FB0446E079303800F0FF0B03219B
:101AF0002046FEF755FF0546FF2D04D060196946C4
:101B000000F008FC38704FF000097EE041A1019818
:101B1000FEF72AFB044624B940A10198FEF724FBF6
:101B2000044624B93FA10198FEF71EFB044624B9E0
:101B30003EA10198FEF718FB044600265CE0042055
:101B400000EB8600C1B22046FEF72AFF0546FF2DB6
:101B500009D06019694600F0DDFBC1B208EB8802CC
:101B6000781C815400E049E0052000EB8600C1B2FA
:101B70002046FEF715FF0546FF2D0AD0601969467D
:101B800000F0C8FBC1B208EB8802781C1044417019
:101B900000E033E0062000EB8600C1B22046FEF7ED
:101BA000FFFE0546FF2D0AD06019694600F0B2FB22
:101BB00081B208EB8802781C1044418000E01DE0EF
:101BC000072000EB8600C1B22046FEF7E9FE05467D
:101BD000FF2D0AD06019694600F09CFBC1B208EBEA
:101BE0008802781C1044017100E007E008F1010050
:101BF00000F0FF08701CC6B2042EA0DB00BF601C02
:101C0000019009F1010000F0FF09D945FFF67EAF10
:101C1000BDE8FC9F244750475356000024474E47D9
:101C20005356000024474C47535600002447424770
:101C3000535600002DE9F04F85B0044688469EA11A
:101C40004046FEF791FA074627B99DA14046FEF7A8
:101C50008BFA074627B99CA14046FEF785FA07464E
:101C600027B99BA14046FEF77FFA07460121384677
:101C7000FEF796FE0546FF2D23D0781904A900F043
:101C800049FB82469DF810100A2000F0BCF9BAFB0F
:101C9000F0F642F21070B6FBF0F0C1B241200155EF
:101CA0006420B6FBF0F06421B0FBF1F201FB1201FD
:101CB000422001556420B6FBF0F100FB1161432086
:101CC000015503213846FEF76BFE0546FF2D47D030
:101CD00094F85C00022843DB781904A900F01AFB91
:101CE00006469DF81000801CC1B20A2000F08BF956
:101CF000B6FBF0F060649DF81000801CC1B20A20B1
:101D000000F081F9B6FBF0F100FB116A5046FEF7D6
:101D10009DFC81469DF81000C0F10500C1B20A206B
:101D200000F071F90090FEF791FC83464946FEF7FA
:101D30008CFA82466849FEF7BAFA052102900A2019
:101D400000F061F9616C00FB01FA5046FEF77EFC81
:101D500001900299FEF721FA0390FEF78DFC606472
:101D600004213846FEF71CFE0546FF2D06D094F8E8
:101D70005C00022802DB785D84F8480005213846C3
:101D8000FEF70EFE0546FF2D49D094F85C000228B0
:101D900045DB781904A900F0BDFA06469DF810004D
:101DA000801CC1B20A2000F02EF9B6FBF0F044F816
:101DB000490F9DF81000801CC1B20A2000F023F9E1
:101DC000B6FBF0F100FB116A5046FEF73FFC81467E
:101DD0009DF81000C0F10500C1B20A2000F013F90F
:101DE0000090FEF733FC83464946FEF72EFA824602
:101DF0003949FEF75CFA052102900A2000F003F948
:101E0000216800FB01FA5046FEF720FC0190029980
:101E1000FEF7C3F90390FEF72FFC44F849090621A9
:101E20003846FEF7BDFD0546FF2D06D094F85C0050
:101E3000022802DB785D84F84D0009213846FEF760
:101E4000AFFD0546FF2D33D0781904A900F062FAE2
:101E5000064642F21070B6FBF0F0C1B240200155C8
:101E60004120005D102805DB4020005D401CC1B210
:101E7000402001554120005D0830182190FBF1F20F
:101E800001FB1200C1B2412001556420B6FBF0F005
:101E90006421B0FBF1F201FB12013F2001556420E7
:101EA000B6FBF0F100FB116000F5FA60A4F83D000C
:101EB00005B0BDE8F08F00004750524D43000000D0
:101EC000474E524D43000000474C524D4300000026
:101ED0004742524D4300000000007042F8B50546ED
:101EE0000F461BA13846FEF73FF9044624B91AA154
:101EF0003846FEF739F9044624B919A13846FEF7E9
:101F000033F9044624B918A13846FEF72DF90446E2
:101F100007212046FEF744FD0646FF2E16D0A019E5
:101F2000694600F0F7F9A5F867009DF8000003285E
:101F30000CDA9DF80000C0F10300C1B20A2000F0E5
:101F400062F8B5F867104843A5F86700F8BD0000CF
:101F5000244750565447000024474E56544700002B
:101F600024474C565447000024474256544700002B
:101F7000704710B54FF4A06000F03AF810BD0000B3
:101F800070B5002100230F22C47804B3154C2468D7
:101F900004F4E064C4F5E064210AC1F10403CA401A
:101FA000447804FA03F184781440214309010E4C6B
:101FB0000678A155047804F01F050124AC4005788B
:101FC0006D11AD0005F1E025C5F8004109E0047888
:101FD00004F01F050124AC40044D0678761145F845
:101FE000264070BD0CED00E000E400E080E100E080
:101FF00002490143024A1160704700000000FA05DF
:102000000CED00E0704710B50246012000E050439F
:102010000B00A1F10104E1B2F9D110BD29B1064ACA
:1020200052690243044B5A6104E0034A52698243F5
:10203000014B5A61704700000010024029B1064A66
:10204000D2690243044BDA6104E0034AD269824355
:10205000014BDA61704700000010024029B1064AC6
:1020600012690243044B1A6104E0034A1269824375
:10207000014B1A61704700000010024029B1064A66
:1020800092690243044B9A6104E0034A92698243D5
:10209000014B9A61704700000010024029B1064AC6
:1020A000D2680243044BDA6004E0034AD2688243F8
:1020B000014BDA60704700000010024030B500218B
:1020C0000022002400232D4D6D6805F00C0121B184
:1020D000042905D0082923D105E0294D056022E017
:1020E000274D05601FE0254D6D6805F47012234DE6
:1020F0006D6805F48034022505EB92421CB9214D30
:10210000554305600BE01D4D6D6805F400351DB1AC
:102110001C4D5543056002E0194D5543056002E032
:10212000174D056000BF00BF144D6D6805F0F0014C
:102130000909154D6B5C0568DD4045600F4D6D6804
:1021400005F4E061090A104D6B5C4568DD4085606F
:102150000A4D6D6805F46051C90A0B4D6B5C45680A
:10216000DD40C560054D6D6805F44041890B074DA4
:102170006B5CC568B5FBF3F5056130BD001002402E
:1021800000127A0000093D00140000202400002005
:1021900070B500261A4D1B48008800F40040C0B1FD
:1021A000002018490988C1F30E01174A505417A19D
:1021B000284600F05DFF284601F0AEFE1148008879
:1021C000C0F30E04104801F071FE00200D49088094
:1021D000088010A10C48FDF7C7FF08B1012070BDB1
:1021E0000EA10948FDF7C0FF08B10220F7E70DA1D5
:1021F0000548FDF7B9FF08B10320F0E70020EEE73E
:1022000060780020B00000206068002025732F6EE9
:10221000000000004C454431000000004C454432B1
:1022200000000000706F7300704710B500F002F8F6
:1022300010BD00000CB500200190009033480068EC
:1022400040F480303149086000BF3048006800F435
:10225000003000900198401C0190009818B9019836
:10226000B0F5A06FF1D12948006800F4003010B13A
:102270000120009001E0002000900098012843D147
:102280002348006840F010002149086008460068B3
:1022900020F0030008600846006840F00200086073
:1022A0001A4840681949486008464068486008462E
:1022B000406840F4806048600846406820F47C1024
:1022C00048600846406840F4E810486008460068E6
:1022D00040F08070086000BF0C48006800F000709B
:1022E0000028F9D00948406820F0030007494860F9
:1022F0000846406840F00200486000BF034840685C
:1023000000F00C000828F9D10CBD000000100240BC
:10231000002002402DE9F34F81B007463C460020E3
:102320000090834681460026804630E020782D28A4
:1023300002D148F00208641C20782C280AD02078AA
:102340002A2807D02078202804D020780D2801D012
:10235000207800B91CE020782E2803D148F001082D
:10236000641C09E02078392802DC2078302803DA60
:102370004FF0000900260BE008F0010010B1701CBE
:10238000C6B203E009F1010000F0FF09641CCDE7CB
:1023900000BF08F0020000B17F1C00250EE0A9F18B
:1023A0000100401BC1B20A20FFF72DFE795D3039D4
:1023B000009A00FB01200090681CC5B24D45EEDB81
:1023C000052E00DD05260298067000250EE0701E21
:1023D000401BC1B20A20FFF716FE09F10101294492
:1023E000795C303900FB01BB681CC5B2B542EEDB3D
:1023F00031460A20FFF707FE009901FB00BA08F0FA
:10240000020008B1CAF1000A5046BDE8FE8F042858
:1024100008D14FF0E021096941F004014FF0E022BA
:10242000116107E04FF0E021096921F004014FF04C
:10243000E02211617047704710B51348006840F002
:1024400001001149086008464068104908400E49DB
:102450004860084600680E4908400B490860084675
:10246000006820F4802008600846406820F4FE00E0
:1024700048604FF41F008860FFF7D7FE4FF0006000
:102480000449086010BD0000001002400000FFF881
:10249000FFFFF6FE08ED00E010B50121880700F00F
:1024A0005AF990B10948008840F400400749088073
:1024B00000200988C1F30E01054A50540121880704
:1024C00000F03AF9002000F02FF810BDB000002015
:1024D000606800207FB505460C4601210846FFF7DD
:1024E000ADFDADF80450ADF800400020ADF8060099
:1024F000ADF8020069464FF0804000F049F9012232
:102500001146900700F038F91C208DF80C000120CE
:102510008DF80D0002208DF80E0001208DF80F00BF
:1025200003A8FFF72DFD7FBD10B504464CB1002177
:102530004FF0804000F029F90121880700F0FFF8F2
:1025400004E000214FF0804000F0F9F810BD0000D9
:1025500010B501210B4800F0FEF890B10A48008840
:1025600040F400400849088000200988C1F30E01AA
:10257000064A50540121034800F0DEF8002000F024
:1025800033F810BD00040040AE0000206048002079
:102590007FB505460C4601210220FFF74FFDADF83F
:1025A0000450ADF800400020ADF80600ADF8020080
:1025B00069460C4800F0ECF801221146094800F089
:1025C000DBF81D208DF80C0001208DF80D00022095
:1025D0008DF80E0001208DF80F0003A8FFF7D0FC46
:1025E0007FBD00000004004010B5044644B1002146
:1025F000064800F0CAF80121044800F0A0F803E002
:102600000021024800F09BF810BD000000040040CB
:1026100010B501210B4800F09EF890B10A480088DF
:1026200040F400400849088000200988C1F30E01E9
:10263000064A50540121034800F07EF8002000F0C3
:1026400033F810BD00080040AC00002060340020CA
:102650007FB505460C4601210420FFF7EFFCADF8DD
:102660000450ADF800400020ADF80600ADF80200BF
:1026700069460C4800F08CF801221146094800F028
:102680007BF81E208DF80C0001208DF80D00022033
:102690008DF80E0001208DF80F0003A8FFF770FCE5
:1026A0007FBD00000008004010B5044644B1002181
:1026B000064800F06AF80121044800F040F803E001
:1026C0000021024800F03BF810BD00000008004067
:1026D00010B501210B4800F03EF890B10A4800887F
:1026E00040F400400849088000200988C1F30E0129
:1026F000064A50540121034800F01EF8002000F063
:1027000007F810BD000C0040A4000020602E00203F
:1027100010B5044644B10021064800F036F8012106
:10272000044800F00CF803E00021024800F007F82C
:1027300010BD0000000C0040CA430282704721B166
:10274000028842F00102028004E002884FF6FE7324
:102750001A400280704730B5024600200023002452
:10276000158A05EA0103958905EA010413B10CB144
:10277000012000E0002030BD1AB183890B43838122
:1027800002E083898B438381704781847047000016
:10279000002202881D4B98420ED01D4B98420BD050
:1027A000B0F1804F08D01B4B984205D01A4B98428D
:1027B00002D01A4B984204D14FF68F731A404B88BF
:1027C0001A43174B984207D0164B984204D04FF645
:1027D000FF431A40CB881A4302808B8883850B887D
:1027E00003850A4B98420BD0094B984208D00E4BF8
:1027F000984205D00D4B984202D00D4B984201D122
:102800000B7A03860123838270470000002C01406D
:10281000003401400004004000080040000C00406B
:1028200000100040001400400040014000440140FE
:102830000048014010B540F22551174800F0D3FA86
:1028400048B3154800F08AFBC4B214480088B0F5BC
:10285000806F12DA00211248FFF797FF0F480088B7
:1028600010B90120FFF754FF0C4801880088401C74
:102870000A4A10800B4844540DE00848008840F490
:10288000004006490880002104480088C0F30E007B
:10289000401C044A115410BD004C0040A40000200C
:1028A000000C0040602E002070B58CB006460C462F
:1028B000154601210846FFF7B1FB3046FEF796F8B2
:1028C0000194029510200390002004900590802030
:1028D000069000200790089009904FF480500A90CD
:1028E00000200B9001A93046FEF72AF90CB070BD0C
:1028F00070B504460D4600212046FEF76AF82946C9
:102900002046FEF73BF901212046FEF762F870BD34
:1029100010B540F22551164800F065FA38B3144856
:1029200000F01CFBC4B213480088B0F5806F12DAC7
:1029300000211148FFF729FF0E48008810B9012037
:10294000FFF7B2FE0B4801880088401C094A10803E
:102950000A4844540BE00748008840F40040054909
:10296000088000200988C1F30E01044A505410BDAC
:1029700000380140AC000020000800406034002016
:1029800010B586B0044601210420FFF777FB012132
:102990008803FFF773FB2E4800F0CAF94FF400706C
:1029A000ADF8100003208DF8120018208DF81300E8
:1029B00004A92848FEF7F4FB4FF48060ADF810003E
:1029C00004208DF8130004A92248FEF7E9FB0094C7
:1029D0000020ADF80400ADF80600ADF80800ADF831
:1029E0000C000C20ADF80A006946194800F04AFABC
:1029F00001228021164800F091F9174A1449091D57
:102A00001648FFF751FF0121114800F07BF9012220
:102A100040F225510E4800F010FA25208DF81400E0
:102A200003208DF8150001208DF816008DF8170091
:102A300005A8FFF7A5FA4FF4E151C720FFF708FEFC
:102A4000002007490880FFF72FFE06B010BD0000E8
:102A5000003801400008014060320020440002407C
:102A6000AC00002010B540F22551164800F0BBF92B
:102A700038B3144800F072FAC4B213480088B0F5B5
:102A8000805F12DA00211148FFF77FFE0E480088B0
:102A900010B90120FFF7A8FD0B4801880088401CF1
:102AA000094A10800A4844540BE00748008840F463
:102AB00000400549088000200988C1F30E01044A3E
:102AC000505410BD00440040AE00002000040040FF
:102AD0006048002010B586B0044601210420FFF7AD
:102AE000CDFA01214804FFF7A9FA2C4800F020F99B
:102AF0000420ADF8100003208DF8120018208DF886
:102B0000130004A92648FEF74BFB0820ADF810007F
:102B100004208DF8130004A92148FEF741FB00941E
:102B20000020ADF80400ADF80600ADF80800ADF8DF
:102B30000C000C20ADF80A006946184800F0A2F914
:102B400001228021154800F0E9F8164A1349091DB1
:102B50001548FFF7A9FE0121104800F0D3F8012223
:102B600040F225510D4800F068F926208DF8140038
:102B700001208DF815008DF816008DF8170005A8B6
:102B8000FFF7FEF941F61F416320FFF701FD00202A
:102B900006490880FFF728FD06B010BD004400403C
:102BA000000801406038002080000240AE00002094
:102BB00010B540F22551174800F015F940B31548FB
:102BC00000F0CCF9C4B214480088B0F5805F13DA85
:102BD00000214FF08040FFF7D8FD0F48008810B962
:102BE0000120FFF7A1FC0C4801880088401C0A4A1C
:102BF00010800A4844540BE00748008840F4004025
:102C00000549088000200988C1F30E01034A505489
:102C100010BD000000480040B000002060680020A7
:102C200010B586B0044601210820FFF727FA0121DC
:102C30008804FFF703FA2E4800F07AF84FF480601A
:102C4000ADF8100003208DF8120018208DF8130045
:102C500004A92848FEF7A4FA4FF40060ADF810006C
:102C600004208DF8130004A92248FEF799FA009475
:102C70000020ADF80400ADF80600ADF80800ADF88E
:102C80000C000C20ADF80A006946194800F0FAF86B
:102C900001228021164800F041F8174A1449091D05
:102CA0001648FFF701FE0121114800F02BF8012220
:102CB00040F225510E4800F0C0F827208DF814008E
:102CC00000208DF8150001208DF816008DF81700F2
:102CD00005A8FFF755F94FF4E151C720FFF7FAFBBC
:102CE000002007490880FFF71FFC06B010BD000058
:102CF00000480040000C0140605800201C000240C9
:102D0000B000002021B1828942F40052828104E0A7
:102D100082894DF6FF731A40828170471AB1838A07
:102D20000B43838202E0838A8B43838270470000D7
:102D300010B504462048844209D101218803FFF7D9
:102D4000ADF900214FF48040FFF7A8F932E01B48AD
:102D5000844209D101214804FFF780F900214FF492
:102D60000030FFF77BF925E01548844209D10121A5
:102D70008804FFF773F900214FF48020FFF76EF904
:102D800018E01048844209D10121C804FFF766F910
:102D900000214FF40020FFF761F90BE00A4884425C
:102DA00008D101210805FFF759F900214FF48010DF
:102DB000FFF754F910BD0000003801400044004006
:102DC00000480040004C00400050004002460020F7
:102DD000B1F5007F00D100BF13880B400BB101207B
:102DE00000E00020704770B5024600240023002553
:102DF000002040F66A16B14200D100BFC1F342156F
:102E000001F01F03012606FA03F3012D02D1968972
:102E1000334006E0022D02D1168A334001E0968A43
:102E200033400C12012606FA04F41688344013B11C
:102E30000CB1012000E0002070BDF0B50346002475
:102E400000260025002040F66A17B94200D100BFD5
:102E50001846C1F3421401F01F06012707FA06F5D0
:102E6000012C01D10C3004E0022C01D1103000E023
:102E700014301AB107682F43076002E00768AF43B8
:102E80000760F0BD2DE9F04786B005460E460024E8
:102E9000A24600BFA1460027B08900B100BF2F465F
:102EA0002C8A4CF6FF700440F08804432C82AC89D5
:102EB0004EF6F3100440B088318908437189084305
:102EC0000443AC81AC8A4FF6FF400440B089044310
:102ED000AC8201A8FFF7F2F81F48874202D1DDF863
:102EE00010A001E0DDF80CA0A88900F4004040B17A
:102EF0000AEBCA0000EB0A1031684900B0FBF1F898
:102F000007E00AEBCA0000EB0A1031688900B0FB49
:102F1000F1F86420B8FBF0F004012009642101FB02
:102F20001089A88900F4004040B1322000EBC900AC
:102F3000B0FBF1F000F00700044308E0322000EBA2
:102F400009106421B0FBF1F000F00F0004432C8164
:102F500006B0BDE8F08700000038014001468888CF
:102F6000C0F30800704700BFFEE700000EB5012166
:102F70008120FFF783F800F021F84FF40070ADF8DE
:102F8000080048208DF80B0002A90B48FEF708F94D
:102F900009210520FEF7E4F84FF4007000900020AE
:102FA0008DF804000C208DF8050001208DF8060036
:102FB0006846FDF743FF0EBD001C014008B54FF405
:102FC000C060FFF715F817208DF8000000208DF87D
:102FD00001008DF8020001208DF803006846FEF71D
:102FE000CFFF08BD08B501214FF4C070FFF746F8C8
:102FF0008020ADF8000001208DF8020010208DF82F
:10300000030069461548FEF7CBF84FF40060ADF8B1
:10301000000069461248FEF7C3F84020ADF80000F2
:1030200001208DF8020048208DF8030069460C4805
:10303000FEF7B6F84FF48060ADF8000001208DF87F
:10304000020010208DF8030069460548FEF7A8F835
:103050004FF480610248FEF737F908BD00200140B7
:10306000001C014010B5FFF7BDFFFFF77FFF10BD4B
:103070000FB4084B10B504A902AA039800F0E0F8B9
:10308000044602A9002000F072FC204610BC5DF846
:1030900014FB00006F39000837B514460846064B8C
:1030A0006A46214600F0CCF804466946002000F04C
:1030B0005EFC20463EBD00006F39000802E008C8F3
:1030C000121F08C1002AFAD170477047002001E0A2
:1030D00001C1121F002AFBD1704700002DE9FF5FDC
:1030E000DDE90220010DDDF838B0024318D044F6C6
:1030F0001050A1F2FF3141430D140F98012820D048
:10310000A5EB0B00401C5FEA000A4FF00004474E9D
:10311000DFF81C91A046504616D5CAF1000728E0FA
:103120000F98012443A2012808D0002100980F9B8A
:10313000C0E90021C0E90243BDE8FF9F6FEA0B012F
:10314000F4E7CBF10000DEE7074612E0F80707D00E
:103150002246334640464946FDF78EF98046894669
:103160002246334610461946FDF786F904460E46B8
:103170007F10002FEAD1DDE90201BAF1000F4246CB
:103180004B4602DAFDF778F901E0FDF7E7F904466E
:103190000E460022284BFDF7D7FB03D84FF0FF3037
:1031A000014607E00022254B20463146FDF7BDF8D9
:1031B000FDF7B1FB102409E0002C0ADB0A220023F2
:1031C000FDF7B3FA019B30321A55641E50EA010232
:1031D000F2D1641C019AC4F1110314440F9A012A1C
:1031E00003D0012208430DD10AE0084304D0002097
:1031F0004FF0110B0F9080E7A3EB0B056D1E0DE058
:103200005B4504DD4FF0000205F1010504E003DA3F
:103210004FF00002A5F10105002AECD000980F99AB
:10322000C0E90231C0E9004586E700000000244003
:103230000000F03F300000000000F0430000E03FDD
:103240002DE9FF4F95B09B468946064600250FE2C3
:10325000252877D100242746F84A0121059400E06B
:10326000044316F8013F203B01FA03F01042F7D166
:1032700030782A2811D06FF02F033078A0F1300277
:10328000092A16D8059A44F0020402EB820203EBE5
:1032900042021044761C0590EFE759F8042B059282
:1032A000002A03DA504244F40054059044F002042A
:1032B000761C30782E2816D116F8010F44F004043D
:1032C0002A280DD06FF02F023078A0F13003092B9F
:1032D00009D807EB870302EB4303C718761CF3E713
:1032E00059F8047B761C30786C280FD006DC4C280B
:1032F00017D068280DD06A2814D104E0742810D0A3
:103300007A280FD10DE044F400140AE044F480144C
:1033100001E044F440147278824202D104F5801432
:10332000761C761C307866280BD013DC582877D0B2
:1033300009DC002875D04528F6D04628F4D0472867
:103340001AD19DE118E0632835D0642879D065282A
:1033500012D195E1702873D008DC6728F1D0692874
:103360006FD06E280DD06F2806D1B5E073282CD011
:10337000752875D0782874D05A46179990476D1CD7
:1033800075E1C4F30250022809D003280DD0D9F802
:10339000001004280DD00D6009F1040967E1D9F887
:1033A0000010EA17C1E90052F6E7D9F800100D80C5
:1033B000F2E70D70F0E719F8041B8DF800100020FB
:1033C0008DF80100EA46012003E059F804AB4FF004
:1033D000FF3061074FF0000102D40DE008F1010158
:1033E0008846B9420FDA8045F8DB1AF80810002940
:1033F000F4D108E008F1010188468142FADB1AF8AD
:1034000008100029F6D105985B46A0EB0807214675
:103410003846179A00F094FA284400EB080507E0B4
:103420004DE029E10DE01AF8010B5A461799904733
:10343000B8F10108F7D25B4621463846179A13E1E6
:1034400042E00A220092C4F302524FF0000A022A1C
:1034500008D059F804CB032A4FEAEC710AD00DE0EA
:1034600029E02AE009F1070121F00702F2E802C190
:10347000914609E00FFA8CFC4FEAEC71042A03D163
:103480004FFA8CFC4FEAEC71002907DA0A4600215A
:10349000DCF1000C61EB02012D2202E0220504D5D3
:1034A0002B228DF80420012203E0E20701D0202224
:1034B000F7E7904659E00A2102E010220DE01021C2
:1034C0004FF0000A00910BE010224FF0000A44F088
:1034D00004040827009203E008224FF0000A00923B
:1034E000C4F30252022A05D059F804CB0021032A62
:1034F00008D009E009F1070121F00702F2E802C152
:10350000914605E01FFA8CFC042A01D10CF0FF0C57
:103510004FF00008220728D5702806D0009B83F0C2
:10352000100353EA0A0305D00EE040228DF8042070
:10353000012208E05CEA010206D030228DF8042066
:103540008DF8050002229046009B83F0080353EAA1
:103550000A030AD15CEA010201D1620705D53022D3
:103560008DF804204FF001087F1E582804D034A0A5
:1035700003900EA802900DE036A0F9E7534660468E
:10358000009AFDF7D2F884460398825C0298401EA8
:10359000029002705CEA0100F0D1029806A9081AB4
:1035A00000F1200A600702D524F4803400E00127EE
:1035B000574502DDA7EB0A0000E0002000EB0A01FE
:1035C000009005984144401A0590E00306D45B46FC
:1035D0002146179A059800F0B3F90544002706E044
:1035E00001A85A46C05D179990476D1C7F1C47453E
:1035F000F6DBE0030CD55B462146179A059800F0F0
:103600009FF9054404E030205A46179990476D1CF5
:103610000099481E00900029F5DC08E00298029904
:103620005A460078491C0291179990476D1CBAF1CF
:103630000001AAF1010AF1DC65E10000092801009E
:103640003031323334353637383961626364656618
:1036500000000000303132333435363738394142DA
:10366000434445460000000000F058F90544761C2C
:10367000307800287FF4ECAD19B02846BDE8F08F13
:10368000620700D4062709F1070222F0070CFCE8C4
:103690000223E14603F000485FEA080C02D00FF273
:1036A000702C0DE05FEA045C02D50FF2682C07E095
:1036B0005FEAC47C02D00FF2602C01E0AFF2700C24
:1036C0004FF0FF3823F00043CDF850C065280CD0F0
:1036D00006DC452809D046281DD047283DD13DE0CD
:1036E000662818D067287ED138E00021112F01DB31
:1036F000112000E0781CCDE9000106A90EA8FFF713
:10370000EDFCDDE90F010E9A03910021009207F113
:10371000010A04914DE04FF000400097CDE90110FF
:1037200006A90EA8FFF7DAFCDDE90F0203920E9B53
:1037300011990022DDF80CA00093049211B9791CB4
:1037400000EB010AB7EB0A0004D4C0F1FF3007F127
:10375000010A0490AAEB0700019044E0012F00DA6F
:1037600001270021112F01DD112000E03846CDE9AD
:10377000000106A90EA8FFF7B1FCDDE90F010E9AC2
:103780000391002104910092BA4621070CD40399B9
:10379000514500DA8A46BAF1010F05DD009AAAF117
:1037A0000101515C302908D0B84202DA10F1040F4F
:1037B00006DA0121CDE9011015E0AAF10101E9E7DE
:1037C000002805DC049901440491AAEB000102E001
:1037D000411C514500DD8A460499401A401C019065
:1037E0004FF000400290200704D40198504501DBBF
:1037F000CDF8048000208DF84F0002980DF14F079E
:10380000B0F1004F25D02B200E9002984FF0020807
:1038100000280CDA404202902D200E9007E00A2189
:103820000298FCF76CFF3031029007F8011DB8F1E7
:103830000001A8F10108F2DC02980028EFD1791EFE
:103840000E980870307800F0200040F0450007F82E
:10385000020D12A8C01B00F107081498007800B1EF
:10386000012000EB0A01019801EBE0710598414449
:10387000401A401E0590E00306D45B462146179A85
:10388000059800F05DF805441498007818B15A4680
:10389000179990476D1CE00324D55B462146179A83
:1038A000059800F04DF805441CE00498002807DB5B
:1038B000DDE90301884203DD0098405C179901E0CF
:1038C000179930205A469047049805F10105401C8D
:1038D00004900198401E019004D12E205A46179959
:1038E00090476D1CBAF10001AAF1010ADDDC05E088
:1038F00017F8010B5A46179990476D1CB8F1000153
:10390000A8F10108F4DC5B462146179A0598ABE65E
:103910002D0000002B000000200000002DE9F041E8
:10392000044600251E461746880404D405E039469F
:103930002020B0476D1C641EF9D52846BDE8F081F3
:103940002DE9F041044600251E469046C80301D5E6
:10395000302700E02027880404D505E0414638469A
:10396000B0476D1C641EF9D52846BDE8F0810A6891
:10397000531C0B601070704710B56FF00400FEF719
:1039800046FD0A4800680A49B0FBF1F00949087091
:103990000846007800EB4001C1EBC0104FF6FF7104
:1039A00001EAC0000449088010BD000000000020AA
:1039B00000127A00B2000020B40000200146114A33
:1039C00012884A434FF0E0235A6100229A611A4656
:1039D000126942F001021A6100BF4FF0E022106943
:1039E00000F001021AB100F48032002AF5D04FF045
:1039F000E022126922F001024FF0E0231A61002256
:103A00009A617047B40000200146114A12784A4377
:103A10004FF0E0235A6100229A611A46126942F07F
:103A200001021A6100BF4FF0E022106900F00102AC
:103A30001AB100F48032002AF5D04FF0E02212696A
:103A400022F001024FF0E0231A6100229A617047D0
:103A5000B20000200EB54FF001090024002600BF7F
:103A6000002500BFFDF726FFFDF704FF7148006841
:103A700008B9012000E000206E4908604FF4FA7098
:103A8000FFF79CFF6C48D0F8800108B9012000E0E6
:103A900000206849086000204FF4A073F02201461E
:103AA0000090FDF73FFC47F6FF70002363A20A2158
:103AB00000903220FDF78AFC02E001A8FDF735F9FD
:103AC000FDF7ACF80028F8D1FFF756FFFEF751FAE2
:103AD0004FF4E130FEF7FEFF4FF41650FFF7A0F869
:103AE0004FF4FA70FFF76AFF5248006808B90120E6
:103AF00000E000204F4908604FF4FA70FFF75EFFC6
:103B00004D48D0F8800108B9012000E00020494963
:103B100008608DE000BFFDF749F882465046FCF78B
:103B2000BFFD07463A460B4648A14F48FFF7A0FAAB
:103B300047F6FF7000234C4A282100901846FDF7F5
:103B400045FC00F03DFA002504E04848405D484946
:103B500048556D1C642DF8DB4FF4FC600023444A8B
:103B6000502100901846FDF731FCFEF711FB04468A
:103B7000012C18D1A64216D02E48006808B90120A1
:103B800000E000202B4908604FF47A70FFF716FF21
:103B90002948D0F8800108B9012000E0002025491B
:103BA0000860264644E0022C32D1A64230D021489B
:103BB000006808B9012000E000201E4908604FF4A9
:103BC0007A70FFF7FBFE1C48D0F8800108B901208D
:103BD00000E00020174908604FF47A70FFF7EEFE0E
:103BE0001548D0F8800108B9012000E000201149F3
:103BF00008604FF47A70FFF7E1FE0F48D0F88001BB
:103C000008B9012000E000200A49086026460FE0BC
:103C1000032C0DD1A6420BD04FF0010904E013494B
:103C200014A000F0CFF88146B9F1000FF7D1264675
:103C300070E70000808121420080214257656C635B
:103C40006F6D6520746F204849540000437572728F
:103C5000656E742074656D7065726174757265202F
:103C600069733A252E326600FA01002032010020E5
:103C70009601002031383531393036333237330050
:103C800070B5044600250C48008800F4004070B16F
:103C9000002009490988C1F30E01084A5054214601
:103CA0001046FCF761FA0546044800F035F900209B
:103CB00001490880284670BDB000002060680020DF
:103CC0002DE9F04104460E4615460027002016490E
:103CD0000880FF2C07D800BF1448006A0028FBD1D9
:103CE00013490C8003E0214612A000F03FF9C6B151
:103CF000BDB10FE00A20FFF761FE0B48008800F419
:103D0000004038B13046FFF7BBFF00B106E00020AD
:103D100005490880681E80B20500EBD100BF05B9D7
:103D200001273846BDE8F081B000002000000240C5
:103D30000448004025730D0070B50546144E2A4610
:103D400014A13046FFF794F9C82215A13046FFF7B9
:103D5000B7FFD0B9002405E01348005D13490855AA
:103D6000601C84B21048005D0028F5D10F49085549
:103D70002D2D05DB4FF496720DA10EA0FFF7A0FFCD
:103D800000200F490880094870BD0020FCE70000B2
:103D90006088002041542B434D47523D256400006C
:103DA0002B434D47523A0000606800209288002063
:103DB0004F4B000041542B434D47443D312C3100C3
:103DC000B000002030B599B004460D4622461EA131
:103DD0006846FFF74DF964221FA120A0FFF770FF8E
:103DE00010B1FA2019B030BD64221BA11EA0FFF74C
:103DF00067FF08B1F920F5E7642217A11EA0FFF7BD
:103E00005FFF08B1F820EDE7642213A11DA0FFF7C2
:103E100057FF08B1F720E5E7642220A16846FFF7C5
:103E20004FFF08B1F620DDE729461DA000F074F829
:103E300040F2DC521BA11A20FFF742FF08B1F52027
:103E4000D0E70020CEE7000041542B434D47533DBF
:103E500022257322000000004F4B000041542B43E9
:103E60004D47463D3100000041542B435343533DE1
:103E70002247534D2200000041542B435343413FFE
:103E80000000000041542B43534D503D31372C313D
:103E900036372C302C323431000000003E00000058
:103EA000257300002B434D47533A0000F8B50646F2
:103EB000002411A13046FCF757F948B110A1304653
:103EC000FCF752F905466946681CFEF723FAC4B2AE
:103ED0000CA13046FCF748F938B1C8220BA10CA060
:103EE000FFF7EEFE00200B49088024B12046FFF7C3
:103EF00023FF06460024F8BD2B434D544900000023
:103F00002C00000052494E47000000004F4B0000BB
:103F100041544800B00000200FB438B505A8009007
:103F200000BF40210E48FEF751FF0028F9D00D4890
:103F3000009A0499FFF7B0F80020009000BF0A48EB
:103F4000FCF7FAFD0028FAD10648FCF71FF9C4B2C5
:103F500021460548FEF7CCFC38BC5DF814FB000098
:103F60000044004060380020800002400FB438B5A3
:103F700005A8009000BF40210E48FEF727FF00284B
:103F8000F9D00D48009A0499FFF786F800200090B8
:103F900000BF0A48FCF7D0FD0028FAD10648FCF71C
:103FA000F5F8C4B221460548FEF7A2FC38BC5DF81E
:103FB00014FB000000480040605800201C00024034
:103FC00070B51048008800F40040D0B10D4800885A
:103FD000C0F30E05002405E00B48005D0B490855B1
:103FE000601C84B2AC42F7DD0948FFF795FF074932
:103FF0000848FDF76DF90648FCF7F8FF0020014975
:10400000088070BDAC000020603400205E020020FB
:1040100032010020B8000020000000000000000075
:104020000000000000000000000000183C3C3C18AC
:104030001800181800000000000000666666000006
:1040400000000000000000000000006C6CFE6C6CC2
:104050006CFE6C6C000000000018183C66060C1822
:104060003060663C1818000000000E1B5B6E3018B4
:104070000C76DAD8700000000000001C36361C06F2
:10408000F66666DC0000000000000018181800004A
:1040900000000000000000000000003018180C0CA8
:1040A0000C0C0C18183000000000000C18183030F0
:1040B00030303018180C000000000000006C38FE92
:1040C000386C000000000000000000000018187E9E
:1040D00018180000000000000000000000000000B0
:1040E0000000383830180000000000000000007E9A
:1040F00000000000000000000000000000000000C0
:104100000000383800000000000000606030301807
:10411000180C0C060600000000000078CCECECCC7B
:10412000DCDCCC780000000000000030383E30308D
:1041300030303030000000000000003C6666603027
:10414000180C067E000000000000003C6666603827
:104150006066663C000000000000000C0C6C6C6C9B
:1041600066FE6060000000000000007E0606063E5D
:104170006060301E0000000000000038180C3E6631
:104180006666663C000000000000007E603030186B
:10419000180C0C0C000000000000003C66666E3C31
:1041A0007666663C000000000000003C66666666BD
:1041B0007C30181C000000000000000000383800AF
:1041C000000038380000000000000000003838000F
:1041D00000003838301800000000006030180C066D
:1041E0000C183060000000000000000000007E009D
:1041F0007E00000000000000000000060C18306087
:1042000030180C06000000000000003C6666301804
:1042100018001818000000000000007EC3C3F3DB84
:10422000DBF303FE00000000000000183C66666639
:104230007E666666000000000000003E6666663E20
:104240006666663E000000000000003C66660606EA
:104250000666663C000000000000001E36666666CA
:104260006666361E000000000000007E0606063E60
:104270000606067E000000000000007E0606063EE0
:1042800006060606000000000000003C6666060602
:104290007666667C00000000000000666666667E4A
:1042A00066666666000000000000003C18181818DA
:1042B0001818183C0000000000000060606060609A
:1042C0006066663C00000000000000666636361E30
:1042D0003636666600000000000000060606060688
:1042E0000606067E00000000000000C6C6EED6D618
:1042F000D6C6C6C600000000000000C6C6CEDEF668
:10430000E6C6C6C6000000000000003C66666666A1
:104310006666663C000000000000003E6666663E81
:1043200006060606000000000000003C66666666A1
:104330006666663C306000000000003E6666663ED1
:1043400036666666000000000000003C66060C1839
:104350003060663C000000000000007E181818184D
:1043600018181818000000000000006666666666EF
:104370006666663C000000000000006666666666D1
:1043800066663C1800000000000000C6C6C6D6D60F
:10439000D66C6C6C0000000000000066662C1818DB
:1043A0003466666600000000000000666666663CD3
:1043B00018181818000000000000007E6060301817
:1043C0000C06067E000000000000003C0C0C0C0CEB
:1043D0000C0C0C0C0C0C3C0000000006060C0C181D
:1043E00018303060600000000000003C3030303099
:1043F0003030303030303C0000183C6600000000A7
:1044000000000000000000000000000000000000AC
:10441000000000000000FF00001C18300000000039
:10442000000000000000000000000000003C606090
:104430007C66667C0000000000000006063E6666A2
:104440006666663E0000000000000000003C660654
:104450000606663C0000000000000060607C6666A6
:104460006666667C0000000000000000003C666696
:104470007E06063C00000000000000780C0C0C7E5C
:104480000C0C0C0C0000000000000000007C6666B4
:104490006666667C60603E0000000006063E66665A
:1044A000666666660000000000001818001E1818F6
:1044B0001818187E0000000000003030003C30303A
:1044C0003030303030301E000000000606666636A0
:1044D0001E366666000000000000001E181818183E
:1044E0001818187E0000000000000000007ED6D6DC
:1044F000D6D6D6C60000000000000000003E66666A
:10450000666666660000000000000000003C66660B
:104510006666663C0000000000000000003E666623
:104520006666663E0606060000000000007C6666C1
:104530006666667C60606000000000000066760EC3
:10454000060606060000000000000000007C0606CB
:104550003C60603E000000000000000C0C7E0C0C73
:104560000C0C0C780000000000000000006666667D
:104570006666667C0000000000000000006666665B
:1045800066663C18000000000000000000C6D6D699
:10459000D6D66C6C00000000000000000066663C8F
:1045A000183C6666000000000000000000666666B9
:1045B0006666663C30180F0000000000007E603028
:1045C000180C067E00000000000000301818180CBF
:1045D000060C1818183000000000001818181818D9
:1045E00018181818181818000000000C181818309F
:1045F00060301818180C00000000008EDB710000FD
:10460000000000000000000053424153CFB5CDB37D
:1046100020000000494D4553CFB5CDB32000000028
:10462000475053CFB5CDB32000000000515A53532B
:10463000CFB5CDB320000000B1B1B6B7CFB5CDB383
:1046400020000000B8F1C2E5C4C9CBB9CFB5CDB3E5
:1046500020000000D9A4C0FBC2D4CFB5CDB3200048
:104660003244C4A3CABD20003344C4A3CABD200041
:10467000B6A8CEBBCAA7B0DC200000006661696C9A
:10468000656400003244206D6F6465003344206D22
:104690006F646500B446000800000020B800000008
:1046A000BC3000086C470008B8000020989C00004F
:1046B000CC30000800A24A04000000000000000006
:1046C00001020304060708090000000001020304B8
:1046D000010203040607080902040608000000009E
:1046E000000000000000000070460008704600084E
:1046F00060460008684600087C4600087C460008C2
:10470000844600088C460008204600080846000839
:104710005446000838460008144600082C46000895
:1047200044460008925ED4EE5701B63F2BA226FA0B
:104730007C9451BF3CF54883DBEA13C079E926310C
:1047400008AC5CBF08E8BE9CD9AEB03F1C5C3AE642
:104750003CA32AC000000000000000000000000090
:0C4760000000000000000000000000004D
:0400000508000131BD
:00000001FF
