:020000040800F2
:10000000B09D002045010008D517000881100008A8
:1000100059110008790900088F2800080000000025
:10002000000000000000000000000000F11A0008BD
:100030005D0B00080000000049180008FF1C0008C4
:100040005F0100085F0100085F0100085F01000810
:100050005F0100085F0100085F0100085F01000800
:100060005F0100085F0100085F0100085F010008F0
:100070005F0100085F0100085F0100085F010008E0
:100080005F0100085F0100085F0100085F010008D0
:100090005F0100085F0100085F010008610B0008B4
:1000A0005F0100085F0100085F0100085F010008B0
:1000B000611D0008191E0008DD1E00085F01000810
:1000C0005F0100085F0100085F0100085F01000890
:1000D0005F010008392200088D230008D924000898
:1000E0005F0100085F0100085F0100085F01000870
:1000F0005F0100085F0100085F0100085F01000860
:100100005F0100085F0100089D1F00085F010008F3
:100110005D2100085F0100085F0100085F01000821
:100120005F0100085F0100085F0100085F0100082F
:10013000DFF80CD000F00EFC004800479D330008AB
:10014000B09D00200648804706480047FEE7FEE7CE
:10015000FEE7FEE7FEE7FEE7FEE7FEE7FEE7FEE777
:10016000011D00083101000830B505462A460B463E
:1001700012F8010B13F8014B08B1A042F8D01CB1E2
:10018000002802D06D1CF1E7284630BD421C10F853
:10019000011B0029FBD1801A7047F0B480EA0102EC
:1001A000D40F4200B2EB410F02D20246084611467C
:1001B0004A0042D0C30DDDB2C1F3C752AD1A202DA3
:1001C00035DAC1F3160141F4000204B15242C5F11F
:1001D000200602FA06F12A411044B3EBD05F23D087
:1001E000C4B1012DA0EBC35009DCF0BC4FF00042BC
:1001F00002EAC352DBB200F5000000F0F0BA4000A2
:1002000000F1807000EBC350A0F1807040EAD17023
:10021000490009E0490841EAC071A0EBC35000F56C
:100220000000400800EBC350F0BC00F0CFBA6142C0
:10023000012202EB4101001BF6E7F0BC704781F0A0
:100240000041AAE780F00040A7E780EA010210B56C
:1002500002F00043400022D04A001FD0010E01EB03
:100260001261C0F35600C2F3560240F4000042F49B
:100270000002A0FB022000047F39140400D0401CBF
:1002800050EA124001D44000491EC2B20C0604EBF1
:10029000D010401C4008802A02D003E0002010BD8E
:1002A00020F00100002900DA0020184310BD30B40E
:1002B00080EA010202F0004530F0004221F00040E7
:1002C00013D090B1C30DD40DC2F31601C0F31600C4
:1002D000E41A41F4000140F400027D34914201D35C
:1002E000641C00E04900002C02DA30BC002070479A
:1002F0004FF400000023914201D3891A03434008C0
:100300004FEA4101F7D151B1914202D14FF0004182
:1003100005E002D24FF0010101E06FF0010103EBB3
:10032000C450284430BC00F051BA2DE9FE4F80463D
:1003300081EA0300C00F0C46009021F0004123F039
:100340000045B8EB0200A94105D24046214690463F
:100350001C460B46024623F00040104347D0270DB1
:10036000C7F30A00C3F30A510290401A01904028D3
:100370006BDAC3F3130040F4801B0098924620B15F
:100380000023D2EB030A63EB0B0B01985946C0F133
:100390004002504600F0E9F906460D4650465946DF
:1003A000019A00F001FA10EB08006141002487EA8D
:1003B000115284EAE7731A4340D0009A62B3019A5B
:1003C000012A4FEA075215DC001B61EB02014FF0D6
:1003D000004202EA0752CDE90042001C41F58011BB
:1003E00032462B4600F038FA03B0BDE8F08F4046A5
:1003F0002146F9E7001B61EB0201001C41F5801367
:1004000000185B412018A2F5001747EB030140EAF2
:10041000D570B6196D4111E06D084FEA360645EA10
:10042000C0754FEA0752001B61EB0201001C41F549
:10043000801149084FEA30000019514132462B46DD
:1004400003B0BDE8F04F00F0F8B900980122400079
:100450000023D0EB020263EBE073009821464FEAE1
:10046000E074B8EB000061EB0401E9E783F00043BE
:100470005BE781F0004158E72DE9FE4F81EA030474
:1004800004F0004421F0004100944FF0000B23F0F1
:10049000004350EA01045ED052EA03045BD0C3F388
:1004A0000A54C1F30A552C44A4F2F3340194A0FB7E
:1004B0000254C1F3130141F48011C3F3130343F455
:1004C000801301FB024400FB034E840A970A44EAAE
:1004D000815447EA8357A4FB076802958D0A05FB00
:1004E00007854FEA932C04FB0C542705029D4FEA25
:1004F000065847EA1637B5EB08056EEB070C870E72
:10050000920E47EA811742EA8312A7FB0201B6EB7B
:100510000B0164EB00042B0D43EA0C335E1844EB33
:100520001C50DA465146E7FB0201C5F313044FEABB
:100530000B3343EA14534FEA0432019C43EA0603A7
:10054000A4F10C040294009CCDE900B400F084F9FD
:1005500003B0BDE8F08F00200146F9E72DE9F04D2A
:1005600081EA030404F0004B21F0004514464FF0EB
:10057000000A23F0004150EA050220D054EA0102AB
:100580001DD0C5F30A570246C5F31303C1F3130088
:10059000C1F30A5640F4801543F48013A7EB060814
:1005A000101BD64608F2FD3873EB050002D308F1A4
:1005B000010801E092185B41B8F1000F03DA002056
:1005C0000146BDE8F08D00204FF4801106468446B8
:1005D0000EE0171B73EB050705D3121B63EB050336
:1005E00006434CEA010C49084FEA300092185B417F
:1005F00050EA0107EDD152EA030012D082EA04006A
:1006000083EA0501084305D0101BAB4106D2012245
:10061000002306E000224FF0004302E06FF00102E9
:1006200053101AEB06004CEB085110EB0A0041EB9B
:100630000B01BDE8F04D00F000B9C10F80EAE07099
:100640000844CA079623002100F0C9B89623002267
:10065000114600F0C4B820F00040C10DC0F31600F0
:1006600040F400007F2901DA00207047962903DC5E
:10067000C1F19601C840704796398840704700F034
:10068000004230F000400AD0C10D01F56071C0F3A6
:10069000160042EA0151C20840071143704700208A
:1006A0000146704701F0004330B421F0004150EAA8
:1006B000010206D00A0DA2F56072C1F31301002AEF
:1006C00002DC30BC00207047440F44EAC104C10082
:1006D000E01830BC00EBC25000F078B830B50B46E3
:1006E000014600202022012409E021FA02F59D4262
:1006F00005D303FA02F5491B04FA02F52844151E36
:10070000A2F10102F1DC30BD2DE9F05F05460020C9
:1007100092469B4688460646814640241BE0284672
:1007200041464746224600F02FF853465A46C01A23
:10073000914110D311461846224600F016F82D1AA2
:1007400067EB01084F4622460120002100F00DF81A
:1007500017EB00094E41201EA4F10104DFDC4846DE
:1007600031462A464346BDE8F09F202A04DB203A62
:1007700000FA02F1002070479140C2F1200320FAF4
:1007800003F3194390407047202A04DB203A21FAF2
:1007900002F00021704721FA02F3D040C2F120029A
:1007A0009140084319467047202A06DBCB17203AB0
:1007B00041FA02F043EAE07306E041FA02F3D04066
:1007C000C2F1200291400843194670470029A8BF92
:1007D0007047401C490008BF20F00100704710B46A
:1007E000B0FA80FC00FA0CF050EA010404BF10BC1F
:1007F000704749B1CCF1200421FA04F411FA0CF14C
:1008000018BF012121430843A3EB0C01CB1D4FEA84
:1008100000614FEA102042BF002010BC704700EB7F
:10082000C35010440029A4BF10BC7047401C4900AD
:1008300008BF20F0010010BC704710B5141E73F102
:10084000000408DA401C41F1000192185B411A4390
:1008500001D120F0010010BD2DE9F04D92469B46DC
:1008600011B1B1FA81F202E0B0FA80F22032904682
:10087000FFF77BFF04460F4640EA0A0041EA0B01FE
:1008800053465A46084313D0114653EA010019D083
:10089000C8F140025046FFF777FF05460E46504626
:1008A00059464246FFF761FF084305D0012004E0A6
:1008B00020463946BDE8F08D0020054346EAE07643
:1008C0002C4337430A986305E40AA0EB0800002292
:1008D000FD0A44EA47540A3002D500200146E9E700
:1008E000010510196941DDE9084500196941BDE8B4
:1008F000F04DA2E7C1F30A52C1F3130140F2FF33F6
:1009000041F480119A4202DA00200146704740F219
:1009100033439A42A2F2334202DC5242FFF734BF21
:10092000FFF723BF30B5041E71F1000404DB4FF064
:100930000044404264EB0101141E73F1000405DB26
:100940001C464FF00043524263EB0403994208BF38
:10095000904230BD064C074D06E0E06840F00103D0
:1009600094E8070098471034AC42F6D3FFF7E4FB55
:10097000B03A0008D03A000800BFFEE7024613462E
:1009800010E010782A2805D01078202802DB107893
:100990007A2801DDFF20704710782C2801D1481EED
:1009A000C1B2521C0029ECD1D01AC0B2F3E721B178
:1009B000026842F00102026004E002684FF6FE7332
:1009C0001A4002607047000001684FF6FE72114045
:1009D00001600021016041608160C1604B49884233
:1009E00008D14A490839496841F00F01474A083A95
:1009F00051608AE045491431884208D14349083999
:100A0000496841F0F001414A083A51607DE03F49B0
:100A10002831884208D13D490839496841F470615C
:100A20003A4A083A516070E038493C31884208D16E
:100A300036490839496841F47041344A083A5160EE
:100A400063E032495031884208D130490839496859
:100A500041F470212D4A083A516056E02B49643127
:100A6000884208D129490839496841F47001274A68
:100A7000083A516049E025497831884208D1234934
:100A80000839496841F07061204A083A51603CE0F9
:100A90001F49884206D1011F096841F00F01021F5A
:100AA000116032E01A491431884208D11849091FEF
:100AB000096841F0F001164A121F116025E014493F
:100AC0002831884208D11249091F096841F4706130
:100AD0000F4A121F116018E00D493C31884208D1BD
:100AE0000B49091F096841F47041094A121F11603E
:100AF0000BE007495031884207D10549091F0968B1
:100B000041F47021024A121F116070470800024030
:100B1000080402400146486880B2704710B50022C0
:100B2000026847F6F0739A430C6A8B6823430C699A
:100B300023434C6923438C692343CC6923434C6A88
:100B400023438C6A23431A430260CB6843600B68DB
:100B500083604B68C36010BD416070477047000000
:100B600010B54FF4007000F011F828B101200349CE
:100B70000870400200F004F810BD0000A000002042
:100B8000014908607047000014040140014600203C
:100B90000022074B1B6803EA0102054B14331B6854
:100BA0000B4013B10AB1012000E0002070470000A3
:100BB000000401402DE9FF5F81460C46834890F810
:100BC0005C0003287DDC814890F85C00804951F886
:100BD000202080A1484601F05DFE7C49D1F8490003
:100BE000FFF734FD8246FFF74AFD074600227A4BA5
:100BF000FFF7B4FC0546FFF755FD03900398FFF798
:100C00003EFD0546714890F84D004A46CDE9005139
:100C1000029072A1484601F03DFE6C49486CFFF716
:100C200015FD8246FFF72BFD074600226A4BFFF7B2
:100C300095FC0546FFF736FD03900398FFF71FFD6F
:100C40000546624890F848004A46CDE900510290B6
:100C500066A1484601F01EFE5C49D1F86300FFF72B
:100C6000ECFC8246FFF70BFD07460022634BFFF7C3
:100C700075FC0546FFF716FD03900398FFF7FFFC90
:100C80004A46CDE900015EA1484601F003FE4F4906
:100C9000B1F86700FFF7DAFC8246FFF7F0FC074681
:100CA00000225B4BFFF75AFC0546FFF7FBFC039065
:100CB0000398FFF7E4FC4A46CDE9000155A14846F8
:100CC00000E001E001F0E6FD404890F85C000328F8
:100CD0007ADC4FF0010A4FF01A0B524652A120461F
:100CE00001F0D8FD3949D1F84900FFF7AFFC029077
:100CF000FFF7C5FC05460022374BFFF72FFC0746E0
:100D0000FFF7D0FC03900398FFF7B9FC2246CDE92A
:100D100000014DA1204601F0BDFD2C49486CFFF7B4
:100D200095FC0290FFF7ABFC054600222A4BFFF72B
:100D300015FC0746FFF7B6FC03900398FFF79FFCEE
:100D40002246CDE9000145A1204601F0A3FD1F493F
:100D5000D1F86300FFF771FC0290FFF790FC0546A5
:100D60000022264BFFF7FAFB0746FFF79BFC039098
:100D70000398FFF784FC2246CDE900013CA1204600
:100D800001F088FD1149B1F86700FFF75FFC0290A0
:100D9000FFF775FC054600221D4BFFF7DFFB0746FA
:100DA000FFF780FC03900398FFF769FC2246CDE92A
:100DB000000133A1204601F06DFD5B46224634A1BF
:100DC000204601F067FD00BFBDE8FF9FB80000208E
:100DD0004400002025730000006AF84025732C4C65
:100DE0006F6E673A252E32662531630025732C4CD1
:100DF0006174693A252E3266253163000000244073
:100E000025732C416C74693A252E32666D00000002
:100E100000408F4025732C53706565643A252E324F
:100E2000666B6D2F68000000474554202F73747562
:100E300064656E742F7570646174652F3F67726F9F
:100E400075703D25640000002573266C6F6E676920
:100E5000747564653D252E32660000002573266C8E
:100E6000617469747564653D252E3266000000006A
:100E70002573266865696768743D252E3266000013
:100E800025732673706565643D252E32660000006B
:100E9000257320256320485454502F312E310000F3
:100EA0002DE9F04102460025002600200023002401
:100EB000002791F803C00CF00F0591F803C00CF067
:100EC000100CBCF1000F03D091F802C04CEA0505EC
:100ED00091F800C0BCF1000F31D0146800202BE065
:100EE0004FF0010C0CFA00F3B1F800C00CEA030655
:100EF0009E4220D183004FF00F0C0CFA03F7BC4345
:100F000005FA03FC4CEA040491F803C0BCF1280F75
:100F100006D14FF0010C0CFA00FCC2F814C00AE034
:100F200091F803C0BCF1480F05D14FF0010C0CFA49
:100F300000FCC2F810C0401C0828D1D31460B1F8DE
:100F400000C0BCF1FF0F34DD546800202EE000F13A
:100F5000080C4FF0010808FA0CF3B1F800C00CEAD5
:100F600003069E4221D183004FF00F0C0CFA03F7C9
:100F7000BC4305FA03FC4CEA040491F803C0BCF13D
:100F8000280F05D100F1080C08FA0CF8C2F81480FB
:100F900091F803C0BCF1480F07D100F1080C4FF0E5
:100FA000010808FA0CF8C2F81080401C0828CED3BB
:100FB0005460BDE8F0810000F0B50A46002300242B
:100FC0000021002500F00046B6F1004F02D11D4E71
:100FD000F16901E01B4E7168C0F3034583B200F470
:100FE0004016B6F5401F08D121F07061154E7668A5
:100FF00026F07066134F7E6012E000F48016B6F59E
:10100000801F06D1032606FA05F4A14341F0706162
:1010100006E0460D360103FA06F6B14341F0706171
:1010200022B1460D360103FA06F6314300F00046C0
:10103000B6F1004F02D1034EF16101E0014E716043
:10104000F0BD000000000140416170470161704740
:1010500070B504460D462946204600F0D5F82946CD
:10106000204600F053F92946204600F077F829463B
:10107000204600F011FA2946204600F061FB70BDC1
:1010800000BFFEE710B50E4C00F03AFE02F086F805
:10109000642002F0A5F800F017F84FF4165001F0A4
:1010A00003F94FF4165001F0A9F94FF4165001F06E
:1010B0004BFA02F099FA00200249088010BD0000A6
:1010C000C2260020AE00002008B50121042000F057
:1010D000F7FB0121082000F0F3FB0121084600F096
:1010E000EFFB01211848FFF767FF01211748FFF7C1
:1010F00063FF0121082000F0E3FB1820ADF8000099
:1011000010208DF8030003208DF802006946104876
:10111000FFF7C6FE18210E48FFF798FF0121202097
:1011200000F0CEFB0F20ADF8000010208DF803007A
:1011300003208DF8020069460648FFF7B1FE0F2133
:101140000448FFF781FF08BD0004300000023000B2
:10115000000C01400014014000BFFEE7F8B5064650
:101160000F4621A13846FEF7FFFF054625B920A10D
:101170003846FEF7F9FF054625B91FA13846FEF7A8
:10118000F3FF054625B91EA13846FEF7EDFF0546DB
:1011900006212846FFF7F2FB0446FF2C05D028194C
:1011A000694600F01BFD86F84E0007212846FFF730
:1011B000E5FB0446FF2C05D02819694600F00EFD1A
:1011C00086F84F0009212846FFF7D8FB0446FF2C7C
:1011D00009D096F85C00022805DB2819694600F062
:1011E000FDFCC6F86300F8BD2447504747410000A6
:1011F00024474E474741000024474C4747410000E1
:1012000024474247474100002DE9F84306468846F7
:1012100036A14046FEF7A8FF054625B935A1404650
:10122000FEF7A2FF054625B934A14046FEF79CFF14
:10123000054625B933A14046FEF796FF0546022133
:101240002846FFF79BFB0446FF2C05D0281969466A
:1012500000F0C4FC86F85C0096F85C00032802DD10
:10126000002086F85C00002713E0F81CC1B2284675
:10127000FFF784FB0446FF2C08D02819694600F0CC
:10128000ADFCC1B206F15000C15500E003E0781C8E
:10129000C7B20C2FE9DB00BF0F212846FFF76EFB1A
:1012A0000446FF2C05D02819694600F097FCA6F8E3
:1012B0005D0010212846FFF761FB0446FF2C05D096
:1012C0002819694600F08AFCA6F85F00112128461B
:1012D000FFF754FB0446FF2C05D02819694600F09F
:1012E0007DFCA6F86100BDE8F88300002447504764
:1012F0005341000024474E475341000024474C47C8
:101300005341000024474247534100002DE9FC5F50
:1013100007468A464FF00008CDF804A056A1019870
:10132000FEF722FF044624B955A10198FEF71CFFE1
:10133000044624B954A10198FEF716FF044624B9C7
:1013400053A10198FEF710FF0446E079303800F011
:10135000FF0B03212046FFF711FB0546FF2D04D0AC
:101360006019694600F03AFC38704FF000097EE0E1
:1013700041A10198FEF7F8FE044624B940A1019866
:10138000FEF7F2FE044624B93FA10198FEF7ECFEF9
:10139000044624B93EA10198FEF7E6FE0446002665
:1013A0005CE0042000EB8600C1B22046FFF7E6FABD
:1013B0000546FF2D09D06019694600F00FFCC1B247
:1013C00008EB8802781C815400E049E0052000EB1E
:1013D0008600C1B22046FFF7D1FA0546FF2D0AD09C
:1013E0006019694600F0FAFBC1B208EB8802781C6C
:1013F0001044417000E033E0062000EB8600C1B2EB
:101400002046FFF7BBFA0546FF2D0AD06019694652
:1014100000F0E4FB81B208EB8802781C10444180A4
:1014200000E01DE0072000EB8600C1B22046FFF778
:10143000A5FA0546FF2D0AD06019694600F0CEFBDB
:10144000C1B208EB8802781C1044017100E007E08B
:1014500008F1010000F0FF08701CC6B2042EA0DBEA
:1014600000BF601C019009F1010000F0FF09D9459F
:10147000FFF67EAFBDE8FC9F24475047535600005F
:1014800024474E475356000024474C47535600000C
:1014900024474247535600002DE9F04F85B00446DB
:1014A00088469EA14046FEF75FFE074627B99DA1EC
:1014B0004046FEF759FE074627B99CA14046FEF775
:1014C00053FE074627B99BA14046FEF74DFE07464F
:1014D00001213846FFF752FA0546FF2D23D078192F
:1014E00004A900F07BFB82469DF810100A2000F052
:1014F000ACF9BAFBF0F642F21070B6FBF0F0C1B2F4
:10150000412001556420B6FBF0F06421B0FBF1F2FC
:1015100001FB1201422001556420B6FBF0F100FBF3
:1015200011614320015503213846FFF727FA05468C
:10153000FF2D47D094F85C00022843DB781904A9FA
:1015400000F04CFB06469DF81000801CC1B20A203A
:1015500000F07BF9B6FBF0F060649DF81000801C91
:10156000C1B20A2000F071F9B6FBF0F100FB116A7C
:101570005046FFF76BF881469DF81000C0F105005A
:10158000C1B20A2000F061F90090FFF75FF88346CE
:101590004946FEF75AFE82466849FEF788FE052155
:1015A00002900A2000F051F9616C00FB01FA5046EC
:1015B000FFF74CF801900299FEF7EFFD0390FFF75B
:1015C0004AF8606404213846FFF7D8F90546FF2D34
:1015D00006D094F85C00022802DB785D84F84800AD
:1015E00005213846FFF7CAF90546FF2D49D094F882
:1015F0005C00022845DB781904A900F0EFFA0646E2
:101600009DF81000801CC1B20A2000F01EF9B6FB44
:10161000F0F044F8490F9DF81000801CC1B20A2078
:1016200000F013F9B6FBF0F100FB116A5046FFF72A
:101630000DF881469DF81000C0F10500C1B20A20E6
:1016400000F003F90090FFF701F883464946FEF7E2
:10165000FCFD82463949FEF72AFE052102900A2048
:1016600000F0F3F8216800FB01FA5046FEF7EEFFA8
:1016700001900299FEF791FD0390FEF7ECFF44F80C
:10168000490906213846FFF779F90546FF2D06D0AE
:1016900094F85C00022802DB785D84F84D00092193
:1016A0003846FFF76BF90546FF2D33D0781904A9AA
:1016B00000F094FA064642F21070B6FBF0F0C1B2A8
:1016C000402001554120005D102805DB4020005DD1
:1016D000401CC1B2402001554120005D0830182156
:1016E00090FBF1F201FB1200C1B2412001556420D0
:1016F000B6FBF0F06421B0FBF1F201FB12013F20D8
:1017000001556420B6FBF0F100FB116000F5FA60B2
:10171000A4F83D0005B0BDE8F08F00004750524DE1
:1017200043000000474E524D43000000474C524DCD
:10173000430000004742524D430000000000704249
:10174000F8B505460F461BA13846FEF70DFD0446C9
:1017500024B91AA13846FEF707FD044624B919A199
:101760003846FEF701FD044624B918A13846FEF7B5
:10177000FBFC044607212046FFF700F90646FF2E32
:1017800016D0A019694600F029FAA5F867009DF85F
:10179000000003280CDA9DF80000C0F10300C1B27C
:1017A0000A2000F052F8B5F867104843A5F8670022
:1017B000F8BD0000244750565447000024474E56B9
:1017C0005447000024474C565447000024474256D3
:1017D000544700007047000070B5002100230F221D
:1017E000C47804B3154C246804F4E064C4F5E064E0
:1017F000210AC1F10403CA40447804FA03F1847851
:101800001440214309010E4C0678A155047804F0D8
:101810001F050124AC4005786D11AD0005F1E025F0
:10182000C5F8004109E0047804F01F050124AC402C
:10183000044D0678761145F8264070BD0CED00E0A9
:1018400000E400E080E100E0704710B502460120AE
:1018500000E050430B00A1F10104E1B2F9D110BD49
:1018600029B1064A52690243044B5A6104E0034A13
:1018700052698243014B5A617047000000100240D8
:1018800029B1064AD2690243044BDA6104E0034AF3
:10189000D2698243014BDA617047000000100240B8
:1018A00029B1064A12690243044B1A6104E0034A53
:1018B00012698243014B1A61704700000010024018
:1018C00029B1064A92690243044B9A6104E0034A33
:1018D00092698243014B9A617047000000100240F8
:1018E00029B1064AD2680243044BDA6004E0034A95
:1018F000D2688243014BDA6070470000001002405A
:1019000030B500210022002400232D4D6D6805F024
:101910000C0121B1042905D0082923D105E0294D66
:10192000056022E0274D05601FE0254D6D6805F438
:101930007012234D6D6805F48034022505EB924248
:101940001CB9214D554305600BE01D4D6D6805F434
:1019500000351DB11C4D5543056002E0194D55433E
:10196000056002E0174D056000BF00BF144D6D68B3
:1019700005F0F0010909154D6B5C0568DD40456017
:101980000F4D6D6805F4E061090A104D6B5C456808
:10199000DD4085600A4D6D6805F46051C90A0B4D44
:1019A0006B5C4568DD40C560054D6D6805F44041E0
:1019B000890B074D6B5CC568B5FBF3F5056130BD60
:1019C0000010024000127A0000093D0014000020BF
:1019D0002400002070B52F4D2F48008800F40040EF
:1019E000C0B100202C490988C1F30E012B4A505484
:1019F0002BA1284600F04EFF284601F08FFF264815
:101A00000088C0F30E04254801F052FF002022494F
:101A10000880088024A12148FEF7A6FB002837D0C3
:101A200024A11E48FEF7A0FB08B1012070BD23A130
:101A30001A48FEF799FB08B10220F7E721A11748E1
:101A4000FEF792FB08B10320F0E720A11348FEF750
:101A50008BFB08B10420E9E71EA11048FEF784FBC8
:101A600008B10520E2E71DA10C48FEF77DFB08B197
:101A70000620DBE71BA10948FEF776FB08B107202B
:101A8000D4E719A10548FEF76FFB08B10820CDE7A0
:101A90000020CBE7C22A0020B0000020B08900203F
:101AA00025732F6E00000000313838343638333259
:101AB000343533004C454431000000004C4544327D
:101AC0000000000052454C415931000052454C4144
:101AD0005932000052454C415933000052454C41A7
:101AE00059340000706F73004750525300000000DB
:101AF000704710B500F002F810BD00000CB50020D2
:101B0000019000903348006840F48030314908600B
:101B100000BF3048006800F4003000900198401C7D
:101B20000190009818B90198B0F5A06FF1D129483B
:101B3000006800F4003010B10120009001E00020A6
:101B400000900098012843D12348006840F010001D
:101B5000214908600846006820F003000860084634
:101B6000006840F0020008601A484068194948605F
:101B70000846406848600846406840F48060486015
:101B80000846406820F47C1048600846406840F4ED
:101B9000E81048600846006840F08070086000BFA8
:101BA0000C48006800F000700028F9D0094840682F
:101BB00020F00300074948600846406840F00200F2
:101BC000486000BF0348406800F00C000828F9D1C5
:101BD0000CBD000000100240002002402DE9F34F30
:101BE00081B007463C46002000908346814600268F
:101BF000804630E020782D2802D148F00208641C8D
:101C000020782C280AD020782A2807D0207820286D
:101C100004D020780D2801D0207800B91CE020786D
:101C20002E2803D148F00108641C09E020783928E7
:101C300002DC2078302803DA4FF0000900260BE0A0
:101C400008F0010010B1701CC6B203E009F10100F8
:101C500000F0FF09641CCDE700BF08F0020000B1EE
:101C60007F1C00250EE0A9F10100401BC1B20A2033
:101C7000FFF7EBFD795D3039009A00FB0120009001
:101C8000681CC5B24D45EEDB052E00DD0526029829
:101C9000067000250EE0701E401BC1B20A20FFF73F
:101CA000D4FD09F101012944795C303900FB01BB05
:101CB000681CC5B2B542EEDB31460A20FFF7C5FD10
:101CC000009901FB00BA08F0020008B1CAF1000A4D
:101CD0005046BDE8FE8F042808D14FF0E021096985
:101CE00041F004014FF0E022116107E04FF0E021E4
:101CF000096921F004014FF0E0221161704770473B
:101D000010B51348006840F001001149086008460A
:101D10004068104908400E494860084600680E496E
:101D200008400B4908600846006820F480200860DD
:101D30000846406820F4FE0048604FF41F008860A9
:101D4000FFF7D7FE4FF000600449086010BD0000A7
:101D5000001002400000FFF8FFFFF6FE08ED00E073
:101D600010B50121880700F08AF990B10948008870
:101D700040F400400749088000200988C1F30E01A3
:101D8000054A50540121880700F06AF9002000F04C
:101D90002FF810BDB0000020B08900207FB50546A7
:101DA0000C4601210846FFF76BFDADF80450ADF875
:101DB00000400020ADF80600ADF8020069464FF083
:101DC000804000F079F901221146900700F068F98F
:101DD0001C208DF80C0001208DF80D0002208DF8DC
:101DE0000E0001208DF80F0003A8FFF7F5FC7FBD62
:101DF00010B504464CB100214FF0804000F059F975
:101E00000121880700F02FF904E000214FF0804005
:101E100000F029F910BD000010B5012401210C4883
:101E200000F02DF990B10B48008840F400400949BA
:101E3000088000200988C1F30E01074A505401218F
:101E4000034800F00DF9002000F034F810BD000048
:101E500000040040AE000020B06900207FB50546B8
:101E60000C4601210220FFF70BFDADF80450ADF840
:101E700000400020ADF80600ADF8020069460C48AD
:101E800000F01AF901221146094800F009F91D2055
:101E90008DF80C0001208DF80D0002208DF80E0049
:101EA00001208DF80F0003A8FFF796FC7FBD00000E
:101EB0000004004010B5044644B10021064800F07B
:101EC000F8F80121044800F0CEF803E000210248B0
:101ED00000F0C9F810BD00000004004010B5012159
:101EE0000B4800F0CCF890B10A48008840F400405C
:101EF0000849088000200988C1F30E01064A5054A1
:101F00000121034800F0ACF8002000F033F810BDC8
:101F100000080040AC000020B05500207FB5054609
:101F20000C4601210420FFF7ABFCADF80450ADF8DE
:101F300000400020ADF80600ADF8020069460C48EC
:101F400000F0BAF801221146094800F0A9F81E2055
:101F50008DF80C0001208DF80D0002208DF80E0088
:101F600001208DF80F0003A8FFF736FC7FBD0000AD
:101F70000008004010B5044644B10021064800F0B6
:101F800098F80121044800F06EF803E000210248AF
:101F900000F069F810BD00000008004010B50124F1
:101FA00001210C4800F06BF890B10B48008840F418
:101FB00000400949088000200988C1F30E01074A42
:101FC00050540121034800F04BF8002000F034F891
:101FD00010BD0000000C0040A4000020B04F002005
:101FE0007FB505460C4601210820FFF749FCADF8F6
:101FF0000450ADF800400020ADF80600ADF8020036
:1020000069460C4800F058F801221146094800F0D2
:1020100047F832208DF80C0001208DF80D000220C9
:102020008DF80E0001208DF80F0003A8FFF7D4FBF8
:102030007FBD0000000C004010B5044644B10021F3
:10204000064800F036F80121044800F00CF803E0DF
:102050000021024800F007F810BD0000000C00400D
:10206000CA430282704721B1028842F00102028015
:1020700004E002884FF6FE731A400280704730B5C4
:102080000246002000230024158A05EA01039589F1
:1020900005EA010413B10CB1012000E0002030BDBD
:1020A0001AB183890B43838102E083898B43838147
:1020B0007047818470470000002202881D4B9842BF
:1020C0000ED01D4B98420BD0B0F1804F08D01B4B67
:1020D000984205D01A4B984202D01A4B984204D12C
:1020E0004FF68F731A404B881A43174B984207D00C
:1020F000164B984204D04FF6FF431A40CB881A4340
:1021000002808B8883850B8803850A4B98420BD00D
:10211000094B984208D00E4B984205D00D4B98427F
:1021200002D00D4B984201D10B7A038601238382A2
:1021300070470000002C01400034014000040040C2
:1021400000080040000C0040001000400014004057
:1021500000400140004401400048014010B540F2F9
:102160002551174800F0D3FA48B3154800F08AFB10
:10217000C4B214480088B0F5806F12DA002112480A
:10218000FFF797FF0F48008810B90120FFF754FFB1
:102190000C4801880088401C0A4A10800B484454AF
:1021A0000DE00848008840F40040064908800021FE
:1021B00004480088C0F30E00401C044A115410BDAE
:1021C000004C0040A4000020000C0040B04F002054
:1021D00070B58CB006460C46154601210846FFF73F
:1021E0003FFB3046FEF7F0FB019402951020039070
:1021F0000020049005908020069000200790089011
:1022000009904FF480500A9000200B9001A93046AD
:10221000FEF784FC0CB070BD70B504460D4600217D
:102220002046FEF7C4FB29462046FEF795FC012117
:102230002046FEF7BCFB70BD10B540F22551164894
:1022400000F065FA38B3144800F01CFBC4B2134820
:102250000088B0F5806F12DA00211148FFF729FFDE
:102260000E48008810B90120FFF784FE0B48018852
:102270000088401C094A10800A4844540BE0074873
:10228000008840F400400549088000200988C1F317
:102290000E01044A505410BD00380140AC0000202B
:1022A00000080040B055002010B586B0044601215A
:1022B0000420FFF705FB01218803FFF701FB2E48EF
:1022C00000F0CAF94FF40070ADF8100003208DF84B
:1022D000120018208DF8130004A92848FEF7E0FD2D
:1022E0004FF48060ADF8100004208DF8130004A9AD
:1022F0002248FEF7D5FD00940020ADF80400ADF8AB
:102300000600ADF80800ADF80C000C20ADF80A008E
:102310006946194800F04AFA01228021164800F067
:1023200091F9174A1449091D1648FFF751FF012179
:10233000114800F07BF9012240F225510E4800F0CF
:1023400010FA25208DF8140003208DF815000120C7
:102350008DF816008DF8170005A8FFF73DFA4FF429
:10236000E151C720FFF7DAFD002007490880FFF799
:1023700001FE06B010BD0000003801400008014019
:10238000B053002044000240AC00002010B540F2E1
:102390002551164800F0BBF938B3144800F072FA22
:1023A000C4B213480088B0F5805F12DA00211148EA
:1023B000FFF77FFE0E48008810B90120FFF77AFD75
:1023C0000B4801880088401C094A10800A48445480
:1023D0000BE00748008840F40040054908800020D1
:1023E0000988C1F30E01044A505410BD0044004056
:1023F000AE00002000040040B069002010B586B097
:10240000044601210420FFF75BFA01214804FFF78D
:1024100037FA2C4800F020F90420ADF81000032012
:102420008DF8120018208DF8130004A92648FEF735
:1024300037FD0820ADF8100004208DF8130004A922
:102440002148FEF72DFD00940020ADF80400ADF802
:102450000600ADF80800ADF80C000C20ADF80A003D
:102460006946184800F0A2F901228021154800F0C1
:10247000E9F8164A1349091D1548FFF7A9FE01217D
:10248000104800F0D3F8012240F225510D4800F029
:1024900068F926208DF8140001208DF815008DF8BC
:1024A00016008DF8170005A8FFF796F941F61F41B1
:1024B0006320FFF7D3FC002006490880FFF7FAFCF1
:1024C00006B010BD0044004000080140B059002093
:1024D00080000240AE00002010B540F225511748A0
:1024E00000F015F940B3154800F0CCF9C4B2144817
:1024F0000088B0F5805F13DA00214FF08040FFF7CD
:10250000D8FD0F48008810B90120FFF771FC0C4876
:1025100001880088401C0A4A10800A4844540BE095
:102520000748008840F400400549088000200988D9
:10253000C1F30E01034A505410BD00000048004092
:10254000B0000020B089002010B586B004460121FB
:102550000820FFF7B5F901218804FFF791F92E480B
:1025600000F07AF84FF48060ADF8100003208DF889
:10257000120018208DF8130004A92848FEF790FCDB
:102580004FF40060ADF8100004208DF8130004A98A
:102590002248FEF785FC00940020ADF80400ADF859
:1025A0000600ADF80800ADF80C000C20ADF80A00EC
:1025B0006946194800F0FAF801228021164800F017
:1025C00041F8174A1449091D1648FFF701FE012179
:1025D000114800F02BF8012240F225510E4800F07E
:1025E000C0F827208DF8140000208DF81500012078
:1025F0008DF816008DF8170005A8FFF7EDF84FF4D9
:10260000E151C720FFF7CAFB002007490880FFF708
:10261000EFFB06B010BD000000480040000C014078
:10262000B07900201C000240B000002021B1828956
:1026300042F40052828104E082894DF6FF731A4011
:10264000828170471AB1838A0B43838202E0838AB6
:102650008B4383827047000010B5044620488442B3
:1026600009D101218803FFF73BF900214FF4804095
:10267000FFF736F932E01B48844209D101214804B2
:10268000FFF70EF900214FF40030FFF709F925E0BC
:102690001548844209D101218804FFF701F900217E
:1026A0004FF48020FFF7FCF818E01048844209D16D
:1026B0000121C804FFF7F4F800214FF40020FFF7D0
:1026C000EFF80BE00A48844208D101210805FFF722
:1026D000E7F800214FF48010FFF7E2F810BD00008A
:1026E000003801400044004000480040004C0040D9
:1026F0000050004002460020B1F5007F00D100BF2D
:1027000013880B400BB1012000E00020704770B52A
:102710000246002400230025002040F66A16B1423C
:1027200000D100BFC1F3421501F01F03012606FAD4
:1027300003F3012D02D19689334006E0022D02D128
:10274000168A334001E0968A33400C12012606FABD
:1027500004F41688344013B10CB1012000E00020CD
:1027600070BDF0B50346002400260025002040F689
:102770006A17B94200D100BF1846C1F3421401F0F4
:102780001F06012707FA06F5012C01D10C3004E0E1
:10279000022C01D1103000E014301AB107682F4329
:1027A000076002E00768AF430760F0BD2DE9F0471E
:1027B00086B005460E460024A24600BFA14600276B
:1027C000B08900B100BF2F462C8A4CF6FF70044040
:1027D000F08804432C82AC894EF6F3100440B08894
:1027E00031890843718908430443AC81AC8A4FF6B0
:1027F000FF400440B0890443AC8201A8FFF780F891
:102800001F48874202D1DDF810A001E0DDF80CA0DE
:10281000A88900F4004040B10AEBCA0000EB0A109E
:1028200031684900B0FBF1F807E00AEBCA0000EBA1
:102830000A1031688900B0FBF1F86420B8FBF0F0B1
:1028400004012009642101FB1089A88900F40040DB
:1028500040B1322000EBC900B0FBF1F000F00700FE
:10286000044308E0322000EB09106421B0FBF1F0D2
:1028700000F00F0004432C8106B0BDE8F087000093
:102880000038014001468888C0F30800704700BF47
:10289000FEE700000FB4084B10B504A902AA039884
:1028A00000F0E0F8044602A9002000F072FC204687
:1028B00010BC5DF814FB00009331000837B51446D6
:1028C0000846064B6A46214600F0CCF804466946A5
:1028D000002000F05EFC20463EBD00009331000861
:1028E00002E008C8121F08C1002AFAD170477047D9
:1028F000002001E001C1121F002AFBD17047000037
:102900002DE9FF5FDDE90220010DDDF838B002435B
:1029100018D044F61050A1F2FF3141430D140F9826
:10292000012820D0A5EB0B00401C5FEA000A4FF005
:102930000004474EDFF81C91A046504616D5CAF158
:10294000000728E00F98012443A2012808D00021A5
:1029500000980F9BC0E90021C0E90243BDE8FF9F3A
:102960006FEA0B01F4E7CBF10000DEE7074612E067
:10297000F80707D02246334640464946FDF77CFD1E
:10298000804689462246334610461946FDF774FDB7
:1029900004460E467F10002FEAD1DDE90201BAF1AC
:1029A000000F42464B4602DAFDF766FD01E0FDF7F7
:1029B000D5FD04460E460022284BFDF7B3FF03D891
:1029C0004FF0FF30014607E00022254B20463146FC
:1029D000FDF7ABFCFDF78EFF102409E0002C0ADBAD
:1029E0000A220023FDF790FE019B30321A55641E27
:1029F00050EA0102F2D1641C019AC4F1110314449B
:102A00000F9A012A03D0012208430DD10AE008439E
:102A100004D000204FF0110B0F9080E7A3EB0B05C3
:102A20006D1E0DE05B4504DD4FF0000205F1010570
:102A300004E003DA4FF00002A5F10105002AECD012
:102A400000980F99C0E90231C0E9004586E700000F
:102A5000000024400000F03F300000000000F04380
:102A60000000E03F2DE9FF4F95B09B4689460646A2
:102A700000250FE2252877D100242746F84A0121B6
:102A8000059400E0044316F8013F203B01FA03F0EF
:102A90001042F7D130782A2811D06FF02F03307808
:102AA000A0F13002092A16D8059A44F0020402EB7C
:102AB000820203EB42021044761C0590EFE759F8BE
:102AC000042B0592002A03DA504244F40054059086
:102AD00044F00204761C30782E2816D116F8010F27
:102AE00044F004042A280DD06FF02F023078A0F1B2
:102AF0003003092B09D807EB870302EB4303C71800
:102B0000761CF3E759F8047B761C30786C280FD0DC
:102B100006DC4C2817D068280DD06A2814D104E0B0
:102B2000742810D07A280FD10DE044F400140AE084
:102B300044F4801401E044F440147278824202D1DB
:102B400004F58014761C761C307866280BD013DCD4
:102B5000582877D009DC002875D04528F6D04628BB
:102B6000F4D047281AD19DE118E0632835D06428B5
:102B700079D0652812D195E1702873D008DC6728D8
:102B8000F1D069286FD06E280DD06F2806D1B5E03E
:102B900073282CD0752875D0782874D05A46179988
:102BA00090476D1C75E1C4F30250022809D0032838
:102BB0000DD0D9F8001004280DD00D6009F10409DA
:102BC00067E1D9F80010EA17C1E90052F6E7D9F831
:102BD00000100D80F2E70D70F0E719F8041B8DF876
:102BE000001000208DF80100EA46012003E059F8AA
:102BF00004AB4FF0FF3061074FF0000102D40DE04D
:102C000008F101018846B9420FDA8045F8DB1AF86D
:102C100008100029F4D108E008F10101884681423A
:102C2000FADB1AF808100029F6D105985B46A0EBEC
:102C3000080721463846179A00F094FA284400EB1A
:102C4000080507E04DE029E10DE01AF8010B5A46AE
:102C500017999047B8F10108F7D25B4621463846EC
:102C6000179A13E142E00A220092C4F302524FF095
:102C7000000A022A08D059F804CB032A4FEAEC7163
:102C80000AD00DE029E02AE009F1070121F007024E
:102C9000F2E802C1914609E00FFA8CFC4FEAEC71B0
:102CA000042A03D14FFA8CFC4FEAEC71002907DAB1
:102CB0000A460021DCF1000C61EB02012D2202E04A
:102CC000220504D52B228DF80420012203E0E2071F
:102CD00001D02022F7E7904659E00A2102E01022B5
:102CE0000DE010214FF0000A00910BE010224FF090
:102CF000000A44F004040827009203E008224FF081
:102D0000000A0092C4F30252022A05D059F804CBFB
:102D10000021032A08D009E009F1070121F0070288
:102D2000F2E802C1914605E01FFA8CFC042A01D1A9
:102D30000CF0FF0C4FF00008220728D5702806D0B1
:102D4000009B83F0100353EA0A0305D00EE04022F3
:102D50008DF80420012208E05CEA010206D030224E
:102D60008DF804208DF8050002229046009B83F028
:102D7000080353EA0A030AD15CEA010201D162079F
:102D800005D530228DF804204FF001087F1E582809
:102D900004D034A003900EA802900DE036A0F9E70D
:102DA00053466046009AFDF7AFFC84460398825C68
:102DB0000298401E029002705CEA0100F0D1029875
:102DC00006A9081A00F1200A600702D524F480340D
:102DD00000E00127574502DDA7EB0A0000E00020D4
:102DE00000EB0A01009005984144401A0590E00369
:102DF00006D45B462146179A059800F0B3F90544BE
:102E0000002706E001A85A46C05D179990476D1C3F
:102E10007F1C4745F6DBE0030CD55B462146179A3D
:102E2000059800F09FF9054404E030205A461799B0
:102E300090476D1C0099481E00900029F5DC08E0C1
:102E4000029802995A460078491C029117999047B6
:102E50006D1CBAF10001AAF1010AF1DC65E1000084
:102E60000928010030313233343536373839616260
:102E70006364656600000000303132333435363724
:102E800038394142434445460000000000F058F9FB
:102E90000544761C307800287FF4ECAD19B0284644
:102EA000BDE8F08F620700D4062709F1070222F07F
:102EB000070CFCE80223E14603F000485FEA080C37
:102EC00002D00FF2702C0DE05FEA045C02D50FF225
:102ED000682C07E05FEAC47C02D00FF2602C01E0AE
:102EE000AFF2700C4FF0FF3823F00043CDF850C024
:102EF00065280CD006DC452809D046281DD0472877
:102F00003DD13DE0662818D067287ED138E0002109
:102F1000112F01DB112000E0781CCDE9000106A98A
:102F20000EA8FFF7EDFCDDE90F010E9A03910021D9
:102F3000009207F1010A04914DE04FF00040009724
:102F4000CDE9011006A90EA8FFF7DAFCDDE90F02B2
:102F500003920E9B11990022DDF80CA000930492BD
:102F600011B9791C00EB010AB7EB0A0004D4C0F1D7
:102F7000FF3007F1010A0490AAEB0700019044E03A
:102F8000012F00DA01270021112F01DD112000E0BF
:102F90003846CDE9000106A90EA8FFF7B1FCDDE92E
:102FA0000F010E9A0391002104910092BA46210765
:102FB0000CD40399514500DA8A46BAF1010F05DDB8
:102FC000009AAAF10101515C302908D0B84202DA16
:102FD00010F1040F06DA0121CDE9011015E0AAF184
:102FE0000101E9E7002805DC049901440491AAEBFA
:102FF000000102E0411C514500DD8A460499401A57
:10300000401C01904FF000400290200704D401982A
:10301000504501DBCDF8048000208DF84F00029868
:103020000DF14F07B0F1004F25D02B200E900298E4
:103030004FF0020800280CDA404202902D200E903A
:1030400007E00A210298FDF749FB3031029007F8AA
:10305000011DB8F10001A8F10108F2DC0298002876
:10306000EFD1791E0E980870307800F0200040F003
:10307000450007F8020D12A8C01B00F107081498BC
:10308000007800B1012000EB0A01019801EBE0712A
:1030900005984144401A401E0590E00306D45B4663
:1030A0002146179A059800F05DF8054414980078B9
:1030B00018B15A46179990476D1CE00324D55B461A
:1030C0002146179A059800F04DF805441CE0049835
:1030D000002807DBDDE90301884203DD0098405C3E
:1030E000179901E0179930205A469047049805F146
:1030F0000105401C04900198401E019004D12E202F
:103100005A46179990476D1CBAF10001AAF1010ABD
:10311000DDDC05E017F8010B5A46179990476D1C46
:10312000B8F10001A8F10108F4DC5B462146179ACA
:103130000598ABE62D0000002B00000020000000E9
:103140002DE9F041044600251E461746880404D4A4
:1031500005E039462020B0476D1C641EF9D528468D
:10316000BDE8F0812DE9F041044600251E46904659
:10317000C80301D5302700E02027880404D505E0E6
:1031800041463846B0476D1C641EF9D52846BDE857
:10319000F0810A68531C0B601070704710B56FF017
:1031A0000400FEF798FD0A4800680A49B0FBF1F0F8
:1031B000094908700846007800EB4001C1EBC010D7
:1031C0004FF6FF7101EAC0000449088010BD0000FD
:1031D0000000002000127A00B2000020B40000209D
:1031E0000146114A12884A434FF0E0235A610022F7
:1031F0009A611A46126942F001021A6100BF4FF04B
:10320000E022106900F001021AB100F48032002AB5
:10321000F5D04FF0E022126922F001024FF0E023D6
:103220001A6100229A617047B400002070B51A2418
:1032300001254FF4FA7228A128A000F047FA08B13E
:10324000012070BD4FF4FA7223A128A000F03EFACD
:1032500008B10220F5E74FF4FA721FA12AA000F08E
:1032600035FA08B10320ECE74FF4FA721AA129A04D
:1032700000F02CFA08B10420E3E74FF4FA722BA116
:103280002DA000F023FA08B10520DAE74FF4FA7216
:1032900034A135A000F01AFA08B10620D1E74FF4A6
:1032A000FA7234A1354800F011FA08B10620C8E7D7
:1032B0004FF4FA7208A132A000F008FA08B1072012
:1032C000BFE74FF4FA7204A131A000F0FFF908B192
:1032D0000820B6E70020B4E74F4B000041542B43D1
:1032E00047434C4153533D224222000041542B435B
:1032F0004744434F4E543D312C224950222C224307
:103300004D4E45542200000041542B434741545434
:103310003D31000041542B434950435347503D3108
:103320002C22434D4E45542200000000434F4E4E88
:10333000454354204F4B000041542B4349505354B4
:103340004152543D22544350222C223132392E32E4
:1033500030342E3232312E3638222C223830303072
:10336000220000003E00000041542B4349505345C9
:103370004E44000053454E44204F4B009601002020
:1033800041542B434950434C4F53453D31000000BD
:1033900041542B4349505348555400000126002402
:1033A00000250027FDF76EFE4FF4E15140F2CF708B
:1033B000FEF716FE02E000F0B5F80446002CFAD045
:1033C00073E0002400F0FEFA002504E03748405D79
:1033D000374948556D1C642DF8DB0126FEF7FAFAD3
:1033E0000446002C61D0012C0AD10020314908602C
:1033F00001203149C1F8900130A000F08FFA54E06B
:10340000022C0AD101202B49086000202A49C1F86A
:1034100090012BA000F082FA47E0032C06D1012096
:103420002849086028A000F079FA3EE0042C07D172
:1034300001202449091D086024A000F06FFA34E03F
:10344000052C07D101201F490831086020A000F099
:1034500065FA2AE0062C07D101201A490C310860D0
:103460001CA000F05BFA20E0072C0ED101201149CE
:1034700008601149C1F89001002704E00B4916A02B
:1034800000F0A6F9074687B9F8E7082C0DD100200F
:10349000084908600849C1F89001002702E0FFF7D9
:1034A000C5FE0646002EFAD101268AE73201002029
:1034B000FA0100208C81214200802142310000006D
:1034C00032000000808122423300000034000000FE
:1034D00035000000360000003138383436383332D9
:1034E0003435330070B5044600250C48008800F4DC
:1034F000004070B1002009490988C1F30E01084A53
:10350000505421461046FCF72FFE0546044800F0B3
:1035100005FA002001490880284670BDB00000204F
:10352000B089002010B500240BE0641C6420FFF774
:1035300057FE0A2C04DB1EA000F0F0F9002010BD9D
:1035400000BFC8221DA11EA000F0C0F80028ECD1C9
:1035500000BF00240BE0641C6420FFF741FE0A2C2E
:1035600004DB13A000F0DAF90020E8E700BFC8226E
:1035700012A116A000F0AAF80028ECD100BF002488
:103580000BE0641C6420FFF72BFE0A2C04DB08A070
:1035900000F0C4F90020D2E700BFC82207A10FA0A5
:1035A00000F094F80028ECD100BF0120C7E700002C
:1035B0006F7574204641494C0D0A00004F4B0000C6
:1035C00041542B434D47463D3100000041542B43AD
:1035D0005343533D2247534D2200000041542B4397
:1035E0004E4D493D322C320010B500240AE0601CDB
:1035F000C4B26420FFF7F4FD0A2C03DB1CA000F02A
:103600008DF906E0C8221DA11DA000F05FF800287A
:10361000EDD100BF00240AE0601CC4B26420FFF7B3
:10362000DFFD0A2C03DB17A000F078F906E0C822C2
:1036300017A119A000F04AF80028EDD100BF00241E
:103640000AE0601CC4B26420FFF7CAFD0A2C03DB49
:1036500014A000F063F906E0C82215A115A000F03F
:1036600035F80028EDD100BF15A000F057F910BDC6
:1036700053494D204641494C310D0A004F4B000043
:103680004154000053494D204641494C320D0A0037
:10369000524541445900000041542B4350494E3F8C
:1036A0000000000053494D204641494C330D0A00AB
:1036B000302C310041542B435245473F000000005D
:1036C000737563636573730D0A0000002DE9F041A3
:1036D00004460E4615460027002016490880FF2C98
:1036E00007D800BF1448006A0028FBD113490C809A
:1036F00003E0214612A000F03BF9C6B1BDB10FE0D6
:103700000A20FFF76DFD0B48008800F4004038B137
:103710003046FFF7E7FE00B106E0002005490880CB
:10372000681E80B20500EBD100BF05B901273846FD
:10373000BDE8F081B00000200000024004480040D5
:1037400025730D0070B50546144E2A4614A1304667
:10375000FFF7A0F8C82215A13046FFF7B7FFD0B990
:10376000002405E01348005D13490855601C84B22D
:103770001048005D0028F5D10F4908552D2D05DBB7
:103780004FF496720DA10EA0FFF7A0FF00200F4985
:103790000880094870BD0020FCE70000C23A002004
:1037A00041542B434D47523D256400002B434D4768
:1037B000523A0000B0890020F43A00204F4B00003C
:1037C00041542B434D47443D312C3100B000002083
:1037D00070B504460D461E4E22461EA13046FFF728
:1037E00059F864221FA120A0FFF770FF08B1002044
:1037F00070BD64221BA11FA0FFF768FF08B1002065
:10380000F6E7642217A11FA0FFF760FF08B10020B0
:10381000EEE7642213A11EA0FFF758FF08B10020B5
:10382000E6E7C8221FA13046FFF750FF68B9C8225B
:103830000BA12846FFF74AFF40F6B8321AA11A201A
:10384000FFF744FF08B90120D2E70020D0E70000CD
:10385000C23A002041542B434D47533D2225732249
:10386000000000004F4B000041542B434D47463DA4
:103870003100000041542B435343533D2247534DE5
:103880002200000041542B435343413F00000000FD
:1038900041542B43534D503D31372C3136372C306A
:1038A0002C3235003E0000002B434D47533A0000B8
:1038B000F8B50646002411A13046FCF755FC48B186
:1038C00010A13046FCF750FC05466946681CFEF71F
:1038D00085F9C4B20CA13046FCF746FC38B1C822C9
:1038E0000BA10CA0FFF7F2FE00200B49088024B1C9
:1038F0002046FFF727FF06460024F8BD2B434D5412
:10390000490000002C00000052494E470000000012
:103910004F4B000041544800B00000200FB438B5B0
:1039200005A8009000BF40210E48FEF7E3FE0028E6
:10393000F9D00D48009A0499FEF7C0FF00200090CE
:1039400000BF0A48FDF7E6F80028FAD10648FCF760
:103950001DFCC4B221460548FEF75EFC38BC5DF88C
:1039600014FB000000440040B059002080000240D9
:103970000FB438B505A8009000BF40210E48FEF7EF
:10398000B9FE0028F9D00D48009A0499FEF796FF79
:103990000020009000BF0A48FDF7BCF80028FAD1CB
:1039A0000648FCF7F3FBC4B221460548FEF734FC99
:1039B00038BC5DF814FB000000480040B0790020DE
:1039C0001C00024070B51148008800F40040D8B1D6
:1039D0000E480088C0F30E05002405E00C48005D89
:1039E0000C490855601C84B2AC42F7DD09490A480D
:1039F000FDF72EFB09490A48FDF7DCF80848FFF7F8
:103A00008DFF00200149088070BD0000AC0000203F
:103A1000B0550020C2020020B8000020960100200E
:103A20003201002053424153CFB5CDB320000000F6
:103A3000494D4553CFB5CDB320000000475053CF7B
:103A4000B5CDB32000000000515A5353CFB5CDB3CC
:103A500020000000B1B1B6B7CFB5CDB32000000053
:103A6000B8F1C2E5C4C9CBB9CFB5CDB320000000D1
:103A7000D9A4C0FBC2D4CFB5CDB320003244C4A377
:103A8000CABD20003344C4A3CABD2000B6A8CEBB23
:103A9000CAA7B0DC200000006661696C65640000A4
:103AA0003244206D6F6465003344206D6F6465009F
:103AB000D03A000800000020B8000000E02800080C
:103AC000883B0008B8000020F89C0000F02800089F
:103AD00000A24A04000000000000000001020304EC
:103AE00006070809000000000102030401020304A4
:103AF0000607080902040608000000000000000094
:103B0000000000008C3A00088C3A00087C3A00085B
:103B1000843A0008983A0008983A0008A03A000849
:103B2000A83A00083C3A0008243A0008703A000815
:103B3000543A0008303A0008483A0008603A000851
:103B4000925ED4EE5701B63F2BA226FA7C9451BF69
:103B50003CF54883DBEA13C079E9263108AC5CBF49
:103B600008E8BE9CD9AEB03F1C5C3AE63CA32AC034
:103B70000000000000000000000000000000000045
:083B800000000000000000003D
:0400000508000131BD
:00000001FF
